:100000000C94B3000C94D4000C94D4000C94C70648
:100010000C94D4000C94A0030C947B030C94D40097
:100020000C94D4000C94D4000C94D4000C94D40000
:100030000C94D4000C94D4000C94D4000C94D400F0
:100040000C94D4000C94D4000C94D4000C94D400E0
:100050000C94D4000C94D4000C94D4000C94D400D0
:100060000C94D4000C9438160C94D4000C94D40046
:100070000C94D4000C94D4000C94D4000C94D400B0
:100080000C94D4000C94D4000C94D4000C94D400A0
:100090000C94D4000C94D4000C94D4000C94D40090
:1000A0000C94D4000C94D4000C94D4000C94D40080
:1000B0000C94D4000C94D4000C94D4000C94D40070
:1000C0000C94D4000C94D4000C94D4000C94D40060
:1000D0000C94D4000C94D4000C94D4000C94D40050
:1000E0000C94D40007634236B79BD8A71A396856D8
:1000F00018AEBAAB558C1D3CB7CC5763BD6DEDFD4A
:10010000753EF6177231BF000000803F0800000006
:10011000BE922449123EABAAAA2ABECDCCCC4C3EFC
:1001200000000080BEABAAAAAA3E00000000BF00EB
:100130000000803F0000000000084178D3BB4387E7
:10014000D1133D190E3CC3BD4282AD2B3E68EC82FB
:1001500076BED98FE1A93E4C80EFFFBE01C4FF7F80
:100160003F000000000011241FBECFEFD1E2DEBF30
:10017000CDBF00E00CBF17E0A0E0B2E0E4EFF8E391
:1001800000E00BBF02C007900D92AE34B107D9F763
:1001900017E1AEE4B7E001C01D92AA30B107E1F764
:1001A0000E942A180C94781C0C940000E1E8F0E0FE
:1001B00010828CEF8093850081E08093840093E02F
:1001C000909389008FEF8093880090938B008093A9
:1001D0008A0090938D0080938C0090938700809389
:1001E00086008BEA80938000109282008CE08083EE
:1001F00008955C9A5D9A0895E0ECF0E0908195FF97
:10020000FDCF8093C6000895CF93DF93D62FC42FE0
:100210000E94FC0080E791E00197F1F700C08D2F6C
:100220000E94FC0080E791E00197F1F700C08C2F5D
:100230000E94FC0080E791E00197F1F700C0DF9198
:10024000CF91089587B1876F87B988B1807888B9D1
:10025000089586E69EE00197F1F7000040984198E6
:1002600080E388B9429AEFEFF7E43197F1F700C0E5
:1002700000004298E6E6FEE03197F1F70000409872
:10028000419888B9429AEFEFF7E43197F1F700C04F
:1002900000004298E6E6FEE03197F1F70000409852
:1002A000419888B9429A8FEF97E40197F1F700C01F
:1002B00000004298E6E6FEE03197F1F70000409832
:1002C000419880E288B9429A8FEF97E40197F1F75D
:1002D00000C000004298089598B19F7098B998B1F5
:1002E000282F207F922B98B940984198429AEFEF9F
:1002F000F7E43197F1F700C00000429898B19F7081
:1003000098B998B18295807F892B88B94098419897
:10031000429A8FEF97E40197F1F700C000004298EE
:1003200008950E94290186E69EE00197F1F70000FA
:1003300088E20E946C0181E00E946C0186E00E94CC
:100340006C018EE00E946C0180E80E946C010895AF
:1003500098B19F7098B998B1282F207F922B98B9A7
:10036000409A4198429AEFEFF7E43197F1F700C0D5
:100370000000429898B19F7098B998B18295807F9B
:10038000892B88B9409A4198429A8FEF97E4019758
:10039000F1F700C000004298089580E80E946C01C7
:1003A0000895CF93DF93EC018881882331F0219663
:1003B0000E94A80189918823D9F7DF91CF910895F0
:1003C000823079F0833018F48130C9F405C083306D
:1003D00069F08430A1F40FC0862F81580E946C010F
:1003E0000895862F81540E946C010895862F8D56A2
:1003F0000E946C010895862F8D520E946C01089511
:100400000F931F93CF93DF938A01E901882311F0A3
:10041000662319F40E94CD0102C00E94E001C5309C
:10042000D10551F4C80160E177E20E942F1C862FAC
:10043000805D0E94A80103C0C430D10579F4C801D1
:1004400068EE73E00E942F1CCB016AE070E00E940E
:100450002F1C805D0E94A80181E001C080E0C330B4
:10046000D10511F0813071F4C80164E670E00E949A
:100470002F1CCB016AE070E00E942F1C805D0E945F
:10048000A80181E0C230D10511F0813071F42AE079
:1004900030E0C801B9010E942F1CCB01B9010E94B4
:1004A0002F1C805D0E94A80181E0C130D10511F0B0
:1004B000813041F4C8016AE070E00E942F1C805D29
:1004C0000E94A801C630D1051CF085E40E94A80155
:1004D000DF91CF911F910F91089510BA11BA109228
:1004E0000701109208010895EAE7F0E010821092E7
:1004F0007B0080E280937C0080E880BF86E8808378
:100500000895883018F098E090937B00877080629F
:1005100080937C00EAE7F0E08081806480838081C2
:1005200084FFFDCF80917900EAE7F0E0908190614F
:10053000908310927B0008950F931F93682F70E0B3
:1005400080E090E00E94B5192FEE39EC43E95FE3BB
:100550000E94CA1AB62FA72F382F292F60E070E00B
:1005600080E89FE3422F0B2F1A2F232F342FA9014E
:1005700098010E941C192AE939EF4EE255E40E94C5
:10058000671A20E030E040E251E40E94671A0E94BE
:100590008419882777FD8095982F0E94B7190E94AB
:1005A0008419862F972F23E08132920710F080E282
:1005B00093E01F910F910895EF92FF920F931F9375
:1005C000CF93DF93EC017B018BE00E9481020E94BC
:1005D0009C02482F082F192F81E061E0592F23E05A
:1005E00030E00E940002C017D10744F481E090E09F
:1005F0000E151F052CF080E090E002C080E090E036
:10060000DF91CF911F910F91FF90EF900895EF929E
:10061000FF920F931F93CF93DF938C017B01842F65
:100620000E9481020E949C02482FC82FD92F81E08E
:1006300061E0592F23E030E00E9400020C171D07F3
:1006400044F481E090E0CE15DF052CF080E090E0EE
:1006500002C080E090E0DF91CF911F910F91FF9059
:10066000EF90089581B18F6081B982B1807F82B9A6
:10067000EAE0F1E0808188618083EBE0F1E0808155
:100680008861808308956C98749A08956D98759A1E
:100690000895F894EAE6F0E0808182608083EC9A25
:1006A00078940895F894EAE6F0E080818860808389
:1006B000ED9A78940895E1E2F1E010828FEF809353
:1006C000250191E090932401109229018093280143
:1006D00010922B0180932A0110922D0180932C01FE
:1006E00089EA809320018BE080830895809328011C
:1006F00060932A0108951F920F920FB60F92112452
:100700008F939F93AF93BF938091C20C9091C30C32
:10071000A091C40CB091C50C0196A11DB11D809390
:10072000C20C9093C30CA093C40CB093C50CBF91A2
:10073000AF919F918F910F900FBE0F901F901895C2
:100740001F920F920FB60F9211248F939F93AF9326
:10075000BF938091C60C9091C70CA091C80CB0912A
:10076000C90C0196A11DB11D8093C60C9093C70CB6
:10077000A093C80CB093C90CBF91AF919F918F917A
:100780000F900FBE0F901F90189592B1907F8F70B1
:10079000982B92B9089586E00E94C503089589E0D8
:1007A0000E94C503089585E00E94C50308958AE06C
:1007B0000E94C503089580E00E94C50308950F9329
:1007C0001F93CF93BC0180E090E00E94B51928E40C
:1007D00031EE42E850E40E941C190E948919DC01A4
:1007E000CB01A0E0B0E01092C20C1092C30C1092AA
:1007F000C40C1092C50C1092C60C1092C70C10922B
:10080000C80C1092C90CF1E0C0E04091C20C5091AC
:10081000C30C6091C40C7091C50C0091C60C109172
:10082000C70C2091C80C3091C90CEF2F48175907FD
:100830006A077B0708F4EC2FEE2349F44F2F0817C3
:1008400019072A073B0708F44C2F4423F1F20E94B2
:10085000DB03CF911F910F910895CF93DF93EC01AC
:100860008FEF6FEF0E9476030E94D303CE010E94A8
:10087000DF03DF91CF910895CF93DF93EC018FEFEA
:100880006FEF0E9476030E94D703CE010E94DF0320
:10089000DF91CF9108958F929F92AF92BF92CF92A6
:1008A000DF92EF92FF92CF93DF934B015C011092A6
:1008B000C20C1092C30C1092C40C1092C50C0E9472
:1008C000CB0325C083E00E948102D82F82E00E94E2
:1008D0008102C82F81E00E948102CD3038F00E9451
:1008E000CB038FEF6FEF0E94760311C0DD3038F03D
:1008F0000E94CB0384E66FEF0E94760308C08D3020
:1009000030F00E94CB038FEF64E60E947603609183
:10091000C20C7091C30C8091C40C9091C50C0E94C4
:10092000B51920EF37EA4AEA50E40E94671A6B01D2
:100930007C01C501B4010E94B5199B01AC01C7013E
:10094000B6010E94181988230CF4BCCF0E94DB0367
:1009500083E393E70197F1F7DF91CF91FF90EF9059
:10096000DF90CF90BF90AF909F908F9008958F921F
:100970009F92AF92BF92CF92DF92EF92FF924B0184
:100980005C011092C20C1092C30C1092C40C109215
:10099000C50C6091C20C7091C30C8091C40C9091F5
:1009A000C50C0E94B51920EF37EA4AEA50E40E94CC
:1009B000671A6B017C01C501B4010E94B5199B0146
:1009C000AC01C701B6010E941819882314F30E94D4
:1009D000DB0383E393E70197F1F7FF90EF90DF905C
:1009E000CF90BF90AF909F908F900895EF92FF921D
:1009F0001F93CF93DF937C010E94CB038FEF6FEFA8
:100A00000E947603D0E037C083E00E948102182F55
:100A100082E00E948102C82F81E00E948102CD30D5
:100A2000C8F01D3010F48D3070F0DF5F6AE570E0C3
:100A300080E090E00E944B040E94CB038FEF6FEFA9
:100A40000E94760318C08FEF6FEF0E9476030E941A
:100A5000CB0311C01D3038F084E66FEF0E9476039F
:100A60000E94CB0308C08D3030F08FEF64E60E9407
:100A700076030E94CB038D2F90E08E159F0524F204
:100A80000E94DB0383E393E70197F1F7DF91CF91B6
:100A90001F91FF90EF900895EF92FF921F93CF93D5
:100AA000DF937C010E94CB038FEF6FEF0E947603F0
:100AB000D0E037C083E00E948102182F82E00E94BC
:100AC0008102C82F81E00E948102CD30C8F01D3024
:100AD00010F48D3070F0DF5F62E370E080E090E052
:100AE0000E944B040E94CB038FEF6FEF0E947603AE
:100AF00018C08FEF6FEF0E9476030E94CB0311C0E6
:100B00001D3038F084E66FEF0E9476030E94CB031D
:100B100008C08D3030F08FEF64E60E9476030E94AB
:100B2000CB038D2F90E08E159F0524F20E94DB03EE
:100B300083E393E70197F1F7DF91CF911F91FF9046
:100B4000EF900895CF93DF93EC018AEF6AEF0E9454
:100B50007603CE0144970E943C0404C083E090E0F9
:100B60000E943C0482E00E9481028C30B8F30E9413
:100B7000DB0383E393E70197F1F7DF91CF910895CA
:100B8000CF93DF93EC018AEF6AEF0E947603CE01E8
:100B900044970E942D0404C083E090E00E942D043D
:100BA00082E00E9481028C30B8F30E94DB0383E371
:100BB00093E70197F1F7DF91CF9108953B9A43981E
:100BC000089586B1886088B9089586B1877F88B90D
:100BD0000895CF93DF93EC010E94E1051C161D06DA
:100BE0007CF480E090E02FEF3FEF4CE2215030406A
:100BF0004040E1F700C0000001968C179D0799F76F
:100C00000E94E505DF91CF910895259A2D9A0895C8
:100C1000269A2E9A0895279A2F9A08950E940506DB
:100C20000E9408060E940B060E94D60008951092AA
:100C30008900682F70E080E090E00E94B5192BE7F2
:100C400034E14EEE5FE30E941C1920E030E04CE0FE
:100C500052E40E94B4180E94891960938800089594
:100C600010928B00682F70E080E090E00E94B51930
:100C70002BE734E14EEE5FE30E941C1920E030E0E8
:100C80004CE052E40E94B4180E94891960938A00D3
:100C9000089510928D00682F70E080E090E00E942F
:100CA000B5192BE734E14EEE5FE30E941C1920E0FA
:100CB00030E04CE052E40E94B4180E94891960931D
:100CC0008C00089583E0809389008FEF80938800E3
:100CD000089583E080938B008FEF80938A000895BE
:100CE00083E080938D008FEF80938C0008950F93A5
:100CF0001F93CF93DF938C01C091C00CD091C10C96
:100D0000C817D90724F08C179D07A4F024C08C2F96
:100D10000E94170686E696EEA0E081509040A04023
:100D2000E1F7D093C10CC093C00C2196C017D10736
:100D300074F311C08C2F0E941706AFEFBFE8119714
:100D4000F1F700C00000D093C10CC093C00C2197F4
:100D50000C171D077CF3DF91CF911F910F91089520
:100D60008AB18B6F8AB95A9A0895E4E0F1E08081E4
:100D70008FEF8083E5E0F1E0808180830895F8942F
:100D8000E9E6F0E0808180628083789408951F9284
:100D90000F920FB60F9211248F939F93AF93BF932F
:100DA0008091BC0C9091BD0CA091BE0CB091BF0C79
:100DB0000196A11DB11D8093BC0C9093BD0CA09316
:100DC000BE0CB093BF0CBF91AF919F918F910F90CC
:100DD0000FBE0F901F9018950E94B0060E94BF068C
:100DE0000E94F9000E94B50608955E985F980895E4
:100DF0005E9A5F9A08955E985F9A08955E9A5F98EA
:100E000008950E94F5061092BC0C1092BD0C109231
:100E1000BE0C1092BF0C8FEF9FE80197F1F700C056
:100E200000008091BC0C9091BD0CA091BE0CB091C3
:100E3000BF0C8093821690938316A0938416B09370
:100E4000851608950E94F8061092BC0C1092BD0CF5
:100E50001092BE0C1092BF0C8FEF9FE80197F1F734
:100E600000C000008091BC0C9091BD0CA091BE0C04
:100E7000B091BF0C80937E1690937F16A09380163E
:100E8000B093811608950E94FB061092BC0C10923C
:100E9000BD0C1092BE0C1092BF0C8FEF9FE8019713
:100EA000F1F700C000008091BC0C9091BD0CA091A6
:100EB000BE0CB091BF0C8093261190932711A09384
:100EC0002811B093291108950E94FE061092BC0CBF
:100ED0001092BD0C1092BE0C1092BF0C8FEF9FE7CA
:100EE000A4E081509040A040E1F700C00000809154
:100EF000BC0C9091BD0CA091BE0CB091BF0C809326
:100F00002A1190932B11A0932C11B0932D110895B9
:100F10000F931F93EA9A0E9401070FEF1FE322E04D
:100F2000015010402040E1F700C000000E9422075D
:100F30008FEF9FE3A2E081509040A040E1F700C016
:100F400000000E9443070FEF1FE322E00150104012
:100F50002040E1F700C000000E9464078FEF9FE38C
:100F6000A2E081509040A040E1F700C00000EA9864
:100F70004091821650918316609184167091851667
:100F800000912611109127112091281130912911DB
:100F900080917E1690917F16A0918016B091811657
:100FA000400F511F621F731F8A019B01080F191FF9
:100FB0002A1F3B1FC901B80123E030E040E050E0A8
:100FC0000E94561C2A3F31050CF457C040918216EE
:100FD0005091831660918416709185168091261128
:100FE00090912711A0912811B0912911841795078C
:100FF000A607B707A8F44091821650918316609116
:1010000084167091851680917E1690917F16A0911E
:101010008016B091811684179507A607B70780F14F
:1010200040917E1650917F166091801670918116C6
:101030008091821690918316A0918416B0918516A6
:1010400084179507A607B707F0F440917E165091D4
:101050007F16609180167091811680912611909173
:101060002711A0912811B091291184179507A6077F
:10107000B70760F083E090E00BC083E090E008C029
:1010800080E090E005C083E090E002C081E090E065
:101090001F910F910895CF93DF93EC0189E690E0C3
:1010A0000E947706CE010E9477068FEF9FE3A2E0B1
:1010B00081509040A040E1F700C000000E948807E6
:1010C000D82FC92F88E290E00E9477068D2F9C2FA1
:1010D000DF91CF9108958130910549F082309105DB
:1010E00051F0009761F481E080930501089582E05A
:1010F00080930501089584E080930501089510927E
:10110000050108952F923F924F925F926F927F92C6
:101110008F929F92AF92BF92CF92DF92EF92FF9207
:101120000F931F93CF93DF93CDB7DEB7CC5DD04045
:101130000FB6F894DEBF0FBECDBF3C01C752DF4FE4
:1011400079836883C95DD04084E3FE01E759FF4F8E
:10115000DF011D928A95E9F7A1E0B0E001E010E01F
:101160000F2EFAE1EF2EFF24F02D60E072E0E3E6AF
:10117000F0E06D011CC0CA01820F931F880F991FF8
:10118000860F971FDC018D919C911197009719F4A0
:101190001196FC93EE932F5F3F4F2A31310559F79B
:1011A0000894C11CD11CBAE1CB16D10449F09801B6
:1011B000CE9CA001CF9C500DDE9C500D1124DBCFA6
:1011C0008E010D5F1F4FBE01695C7F4FCE01C5963A
:1011D000DB01F80123E630E04FEF5FEF219331931D
:1011E0004D935D93E817F907C9F7C301880F991F5D
:1011F000E9E6F0E0EC0FFD1FE80FF91F21E030E019
:10120000318320838C0F9D1FFC0112821182C752F3
:10121000DF4FE881F981C95DD040EE0FFF1F29E65D
:1012200030E02C0F3D1FE20FF31F8081918100976A
:1012300009F461C0D3C0C601840F951F880F991FA0
:10124000880D991DDC018D919C91D5012D913C91CA
:101250001197280F391FC552DF4FF983E883CB5D03
:10126000D04080819181281739075CF4DB018D9192
:101270009C911197009729F431832083D8016D92B6
:101280007C92C552DF4FA881B981CB5DD0408D9152
:101290009C91119732968E159F054CF4DB012D9190
:1012A0003C9111972115310511F47C012A014F5F02
:1012B0005F4F6E5F7F4F0E5F1F4F4A31510509F040
:1012C000BACFC201880F991FE9E6F0E0EC0FFD1FCD
:1012D0008E0F9F1FDC0111963C922E92CD52DF4F54
:1012E000E881F981C35DD04080819181009709F048
:1012F00075C032013DC029E630E02C0F3D1F2E5F46
:101300003F4FCF52DF4F39832883C15DD040CB524E
:10131000DF4F6883C55DD040CA52DF4F7883C65D1A
:10132000D040C952DF4F0883C75DD040C852DF4F5D
:101330001883C85DD0402224332423940F2EF0E07C
:101340008F2EF2E09F2EF02DC752DF4F88819981BA
:10135000C95DD040880F991FA9E6B0E0AC0FBD1F52
:10136000A80FB91FCD52DF4FB983A883C35DD0400A
:10137000CF52DF4F68817981C15DD040CB52DF4FC2
:101380000881C55DD040CA52DF4F1881C65DD0408C
:10139000C952DF4FE881C75DD040C852DF4FF881A6
:1013A000C85DD0400F2EF3E6EF2EFF24F02D44242D
:1013B0005524A1012AE130E0629E6001639ED00CB9
:1013C000729ED00C1124C301880F991FAA24BB243C
:1013D000A394AC0EBD1EA80EB91E2DCFC752DF4F71
:1013E00088819981C95DD040AFEF8F3F9A07D9F0CE
:1013F000FE01E356FF4F40E050E0819391934F5F31
:101400005F4FDC01AA0FBB1F21E030E02C0F3D1F16
:10141000A20FB31FD4968D919C91D5973FEF8F3F2C
:10142000930759F702C040E050E0FA01EE0FFF1FAA
:101430008DE990E08C0F9D1FE80FF91F118210823B
:10144000A8E8B6E19D01CD01C496FD01119211926B
:10145000E817F907D9F7CA01019792F0CA01880F76
:10146000991FEDE9F0E0EC0FFD1FE80FF91F820F67
:10147000931F329122912D933D93A817B907C9F775
:10148000842F952FC452DF4F0FB6F894DEBF0FBEE6
:10149000CDBFDF91CF911F910F91FF90EF90DF9023
:1014A000CF90BF90AF909F908F907F906F905F9004
:1014B0004F903F902F900895DC01FB01EE0FFF1F2E
:1014C000E295F295F07FFE27E07FFE27E653F34F8B
:1014D00093838283019695878487AD014B5F5F4F2D
:1014E000558344839D012A5F3F4F37872687B78303
:1014F000A683518B408B91878087338B228BB18F52
:10150000A08F938F828F358F248F578F468F0895AA
:10151000CF93DF93C1E0D0E0C530D1052CF4CE01EC
:10152000BE010E945C0A1AC0C930D10534F4CE0154
:101530000196BE010E945C0A11C0CD30D10534F481
:10154000CE010296BE010E945C0A08C0C131D105DD
:101550002CF4CE010396BE010E945C0A2196C13193
:10156000D105D1F6DF91CF9108952F923F924F92FE
:101570005F926F927F928F929F92AF92BF92CF9223
:10158000DF92EF92FF920F931F93CF93DF93ECE0E4
:10159000FFE00F2EFCEFCF2EFFEFDF2EF02D0F2EF2
:1015A000F8EF2F2EFFEF3F2EF02D0F2EFDEF4F2ED9
:1015B000FFEF5F2EF02D0F2EF9EF6F2EFFEF7F2E36
:1015C000F02D0F2EFEEFAF2EFFEFBF2EF02D0F2EC2
:1015D000FAEF8F2EFFEF9F2EF02D0BEF1FEFEE2473
:1015E000EA94FE2CC0E0D0E021E030E02630310566
:1015F000ACF4C90165E070E00E94431C81309105A4
:1016000019F43383228381C0009719F4D183C083F6
:101610007CC0D183C0833383228377C02B303105D4
:10162000ECF4C90165E070E00E94431C8130910533
:1016300029F4D383C283D782C68267C0009729F476
:10164000F182E0821583048360C0F182E082158319
:101650000483D383C283D782C68257C02031310529
:10166000ECF4C90165E070E00E94431C81309105F3
:1016700029F417830683F382E28247C0009729F496
:1016800095828482B182A08240C017830683F38250
:10169000E28295828482B182A08237C025313105F1
:1016A000ECF4C90165E070E00E94431C81309105B3
:1016B00029F497828682B382A28227C0009729F4F8
:1016C000758264825182408220C097828682B38272
:1016D000A282758264825182408217C02A3131050C
:1016E000A4F4C90165E070E00E94431C81309105BB
:1016F00019F47782668209C0009719F43582248232
:1017000004C077826682358224822F5F3F4F219604
:1017100076960894E11CF11C0F5F1F4F0894811C02
:10172000911C0894A11CB11C0894611C711C0894A4
:10173000411C511C0894211C311C0894C11CD11C53
:101740002A31310509F052CFDF91CF911F910F91CE
:10175000FF90EF90DF90CF90BF90AF909F908F90D1
:101760007F906F905F904F903F902F9008956F9271
:101770007F928F929F92AF92BF92CF92DF92EF9221
:10178000FF920F931F93CF93DF930F2EF2EDAF2EA7
:10179000F6E1BF2EF02D0F2EF4E0CF2EFFE0DF2E6E
:1017A000F02DC2E0D0E0EE24FF24E39400E010E04E
:1017B0000F2EF5E08F2E9924F02D0F2EFAEE6F2EBE
:1017C000FEE07F2EF02D2AC046305105CCF0CA0134
:1017D000880F991F840F951F9C01220F331F220F22
:1017E000331F220F331FB901681B790BCB01840F04
:1017F000951FF301E80FF91FC801039793838283B4
:101800000F5F1F4F0894E11CF11C219682E090E0CD
:10181000A80EB91EE6E1F0E0CE0EDF1E9701F5E15D
:10182000EF16F1042CF4C8010696F601918380832B
:10183000C901B4010E94431C8130910541F010168A
:1018400011061CF4F60113830283009759F0AE01D0
:10185000CA31D10584F4F601D583C483F501118220
:101860001082B2CFF50111821082AE01CA31D105CA
:101870000CF4AACF07C0F901EE0FFF1FE053F94E99
:1018800011821082DF91CF911F910F91FF90EF9005
:10189000DF90CF90BF90AF909F908F907F906F9090
:1018A00008954F925F926F927F928F929F92AF9224
:1018B000BF92CF92DF92EF92FF920F931F93CF933D
:1018C000DF930EEF1CE0A1E0B0E0EE24FF2468946B
:1018D000E2F8CC24DD240F2EFAE1AF2EBB24F02D4C
:1018E0000F2EF2E78F2EF7E09F2EF02D662477243F
:1018F00063942BC081919191608571850097B1F0BF
:101900006115710599F08A9D90018B9D300D9A9D0E
:10191000300D1124C901860F971F880F991F880D5C
:10192000991DEC0188819981480E591E4150504003
:1019300009F7141415041CF4F801718260821196E1
:10194000005E1F4FA131B10579F0CD01880F991FBD
:1019500082959295907F9827807F9827FC01E45389
:10196000F34FA7012601C6CFDF91CF911F910F91B1
:10197000FF90EF90DF90CF90BF90AF909F908F90AF
:101980007F906F905F904F900895CF93DF939C016D
:1019900090936F0780936E0770934D0760934C0789
:1019A000AAE1B0E06A9FF0016B9FF00D7A9FF00D05
:1019B0001124E80FF91FC2E7D7E0EE0FFF1FEC0F6D
:1019C000FD1F41E050E0518340832A9FC0012B9FBF
:1019D000900D3A9F900D1124860F971F880F991F25
:1019E000C80FD91F598348830E94510CDF91CF91B2
:1019F00008959C01237030702115310559F49C0124
:101A0000992314F42D5F3F4FC901959587959595BE
:101A1000879508959C01992314F42D5F3F4FC901C8
:101A200095958795959587950196089564E070E062
:101A30000E94431C882309F484E090E008952091DB
:101A40004A0730914B0722303105D1F1233031055F
:101A50002CF42130310509F0AEC009C02330310526
:101A600009F457C02430310509F0A5C07CC0861B9D
:101A7000970B2FEF8F3F9207D1F08130910571F0D6
:101A80002FEF8B3F920709F099C082E090E090938E
:101A90004B0780934A0784EB90E0089583E090E041
:101AA00090934B0780934A078EE091E0089584E07D
:101AB00090E090934B0780934A078AE590E0089561
:101AC000861B970B8130910591F08530910531F09F
:101AD0002FEF8F3F920709F074C012C081E090E0B1
:101AE00090934B0780934A0784EB90E0089583E03E
:101AF00090E090934B0780934A078AE590E0089521
:101B000084E090E090934B0780934A078EE091E049
:101B10000895861B970B2FEF8F3F9207D9F08530E2
:101B2000910531F02FEF8B3F920709F04DC009C0AE
:101B300081E090E090934B0780934A078AE590E01C
:101B4000089582E090E090934B0780934A078EE0DF
:101B500091E0089584E090E090934B0780934A07CA
:101B600084EB90E00895861B970B81309105D1F0AE
:101B70008530910529F02FEF8B3F920741F509C081
:101B800081E090E090934B0780934A078EE091E0CC
:101B9000089582E090E090934B0780934A078AE58E
:101BA00090E0089583E090E090934B0780934A077C
:101BB00084EB90E0089580E090E0089580E090E06C
:101BC000089580E090E0089580E090E0089580E03E
:101BD00090E008950E941F0D843B910561F021E083
:101BE0008E30920769F08A35910571F48AE590E0AC
:101BF0000E94A205089584EB90E00E94A20508953A
:101C00008AE590E00E94C00508952F923F924F927E
:101C10005F926F927F928F929F92AF92BF92CF927C
:101C2000DF92EF92FF920F931F93CF93DF93CDB785
:101C3000DEB7A4970FB6F894DEBF0FBECDBF0F2E50
:101C4000FEEF4F2EFCE05F2EF02D0F2EFEEF6F2EDD
:101C5000FEE07F2EF02DF20180E090E020813181C6
:101C6000820F931FB096E615F705C1F780319105F5
:101C70000CF0D8C040914C0750914D07CA01880F15
:101C8000991F840F951F9C01220F331F220F331FB2
:101C9000220F331FF901E81BF90BE40FF51FE65182
:101CA000F14F84859585009709F045C0CA01880FDA
:101CB000991F840F951F9C01220F331F220F331F82
:101CC000220F331FF901E81BF90BE40FF51FE65152
:101CD000F14F86859785009771F5CA01880F991F86
:101CE000840F951F9C01220F331F220F331F220FD9
:101CF000331FF901E81BF90BE40FF51FE651F14F13
:101D0000808991890097B9F4CA01880F991F840FBF
:101D1000951F9C01220F331F220F331F220F331FE9
:101D2000281B390B240F351FF901E651F14F828929
:101D30009389009721F09093490780934807009179
:101D4000480710914907C8010E94F90C9CA38BA376
:101D5000C8010E94160D1C010F2EF3E08F2E99244E
:101D6000F02D8C0E9D1E54016201EE24FF24E3949D
:101D7000F601808191810097D1F4C7010E94F90C8E
:101D80008C01C7010E94160D2BA13CA1021B130B55
:101D90001AF4109501951F4F821993091AF4909522
:101DA00081959F4F800F911FF50191838083089447
:101DB000E11CF11C20E230E0C20ED31E82E090E074
:101DC000A80EB91E91E1E916F10491F6D401F201D1
:101DD00043E650E080819181009739F48D919C9188
:101DE0001197841795070CF4AC01B0961296E6157E
:101DF000F70581F721E030E0F401819191914F01E5
:101E00008417950729F4F20180819181009761F090
:101E10002F5F3F4F80E290E0480E591E213131057F
:101E200059F702C02FEF3FEF822F932FA4960FB6E2
:101E3000F894DEBF0FBECDBFDF91CF911F910F9100
:101E4000FF90EF90DF90CF90BF90AF909F908F90DA
:101E50007F906F905F904F903F902F900895EF92FA
:101E6000FF920F931F93CF93DF938C01EB0180E5DB
:101E700090E068EC70E00E94DC02009709F45CC01E
:101E80002AE130E0029FF001039FF00D129FF00D58
:101E90001124EC0FFD1F60E072E0EE0FFF1FE60F54
:101EA000F71F43E650E051834083C29FC001C39FA8
:101EB000900DD29F900D1124800F911F880F991FB4
:101EC000860F971FFC015183408310925B0710928D
:101ED0005A070F2EF4E0EF2EF1E0FF2EF02D8EE1E9
:101EE00090E0B801AE01F701199580915A079091E1
:101EF0005B0781309105C9F080915A0790915B078B
:101F00008130910591F08EE190E0B801AE01F701CA
:101F1000199586E69EE00197F1F7000080915A0737
:101F200090915B078130910571F710925B071092D9
:101F30005A0781E090E002C080E090E0DF91CF910D
:101F40001F910F91FF90EF9008958F929F92AF9203
:101F5000BF92CF92DF92EF92FF920F931F93CF9396
:101F6000DF937C015B01861B970B2FEF8F3F92075E
:101F700051F1AFEF8F3F9A0709F034F4BFEF8B3F79
:101F80009B0709F065C04DC08130910529F085306F
:101F9000910509F05DC02EC0C701880F991F8E0DF5
:101FA0009F1DFC01EE0FFF1FEE0FFF1FEE0FFF1F27
:101FB000E81BF90BEE0DFF1DE651F14F0485158569
:101FC000C089D18949C0C701880F991F8E0D9F1DF7
:101FD000FC01EE0FFF1FEE0FFF1FEE0FFF1FE81BB0
:101FE000F90BEE0DFF1DE651F14F02891389C685ED
:101FF000D78532C0C701880F991F8E0D9F1DFC0128
:10200000EE0FFF1FEE0FFF1FEE0FFF1FE81BF90B78
:10201000EE0DFF1DE651F14F00891189C289D38968
:102020001BC0C701880F991F8E0D9F1DFC01EE0F6D
:10203000FF1FEE0FFF1FEE0FFF1FE81BF90BEE0D4A
:10204000FF1DE651F14F06851785C485D58504C06F
:10205000C0E0D0E000E010E0209709F4F5C0FE01F8
:10206000EE0FFF1FE295F295F07FFE27E07FFE273F
:10207000E653F34F848995898130910509F4E4C0D2
:1020800080E590E060E971E04DE00E940703813057
:10209000910509F0CDC080E00E94170684EB0E94F4
:1020A00030068FEF9FEFACE281509040A040E1F707
:1020B00000C000008EE40E9430068FEF9FEFA9E57C
:1020C00081509040A040E1F700C000008EE190E018
:1020D0000E9477068FEF9FE7A6E181509040A040D5
:1020E000E1F700C0000084E190E00E9477068FEFE6
:1020F0009FE7A4E081509040A040E1F700C00000BD
:102100000E9488076C0184EB0E943006C6010E9481
:102110006B088FEF9FEFA9E581509040A040E1F759
:1021200000C0000083E090E00E946B0810925B0703
:1021300010925A070F2EF4E08F2EF1E09F2EF02D13
:1021400088E290E0BE01A601F4011995AFEFBFE867
:102150001197F1F700C0000080915A0790915B073A
:1021600081309105C9F080915A0790915B078130C9
:10217000910591F088E290E0BE01A601F401199565
:1021800086E69EE00197F1F7000080915A07909152
:102190005B078130910571F710925B0710925A0727
:1021A0008091580790915907019690935907809311
:1021B000580710925B0710925A07CCEFD0E082E3E9
:1021C00090E0FE0119958091580790915907FE0102
:1021D0001995AFEFBFE81197F1F700C000008091AB
:1021E0005A0790915B0781309105E9F080915A0779
:1021F00090915B0781309105B1F082E390E0FE01A0
:1022000019958091580790915907FE01199586E616
:102210009EE00197F1F7000080915A0790915B07CB
:102220008130910551F710925B0710925A070CC04C
:1022300082E090E00E946B0882E090E00E94E90555
:1022400083E090E00E946B080115110509F4F7C0C6
:10225000F801EE0FFF1FE295F295F07FFE27E07F79
:10226000FE27E653F34F848995898130910509F45F
:10227000E6C080E590E060E971E049E00E94070374
:102280008130910509F0CFC086E90E94170686E9E2
:1022900090E09093C10C8093C00C8FEF9FEFACE265
:1022A00081509040A040E1F700C000008EE40E9401
:1022B000300682ED90E00E94770685EC90E00E9467
:1022C0007706A6E6BEE01197F1F700000E948807A6
:1022D000EC0186E69EE00197F1F7000084EB0E9496
:1022E00030068FEF9FE7ADE081509040A040E1F7CE
:1022F00000C0000080E00E9417061092C10C1092EE
:10230000C00CCE010E946B088FEF9FEFA9E58150B2
:102310009040A040E1F700C0000083E090E00E9400
:102320006B0810925B0710925A070F2EF4E0CF2E25
:10233000F1E0DF2EF02D88E290E0B801AE01F60169
:102340001995AFEFBFE81197F1F700C00000809139
:102350005A0790915B0781309105C9F080915A0727
:1023600090915B078130910591F088E290E0B8018F
:10237000AE01F601199586E69EE00197F1F700009F
:1023800080915A0790915B078130910571F7109207
:102390005B0710925A078091580790915907019650
:1023A000909359078093580710925B0710925A0731
:1023B000CCEFD0E082E390E0FE01199580915807C0
:1023C00090915907FE011995AFEFBFE81197F1F70A
:1023D00000C0000080915A0790915B078130910501
:1023E000E9F080915A0790915B0781309105B1F037
:1023F00082E390E0FE01199580915807909159076A
:10240000FE01199586E69EE00197F1F700008091A4
:102410005A0790915B078130910551F710925B0745
:1024200010925A070CC082E090E00E946B0882E094
:1024300090E00E94E90583E090E00E946B08C701EC
:10244000B5010E94C50CDF91CF911F910F91FF90B4
:10245000EF90DF90CF90BF90AF909F908F900895B6
:10246000EF92FF920F931F93CF93DF937C018B0129
:1024700080913011909131118617970739F0809132
:102480003211909133118E159F05F1F4E0E3F1E1E3
:102490008081918180179107D9F32091301130917B
:1024A00031112017310739F4E0E3F1E180819181A6
:1024B00028173907D9F38FEF9FEFACE28150904096
:1024C000A040E1F700C0000081E090E00E944C05D0
:1024D00080915607909157070097D9F1AFEFBFE869
:1024E0001197F1F700C0000010925B0710925A0795
:1024F000CCEFD0E080EA90E0FE01199586E69EE000
:102500000197F1F7000080915A0790915B078130A5
:102510009105B9F080915A0790915B078130910540
:1025200081F080EA90E0FE011995A6E6BEE01197E1
:10253000F1F7000080915A0790915B078130910577
:1025400081F710925B0710925A071092570710926A
:102550005607C0913011D0913111C017D107E1F465
:102560000E94CF0362ED70E080E090E00E94B7042B
:10257000E0E3F1E180819181C817D907D9F38FEFAA
:102580009FE7A3E481509040A040E1F700C0000025
:1025900081E090E00E944C052AE130E0E29EC0011B
:1025A000E39E900DF29E900D1124800F911FFC016F
:1025B000EE0FFF1FEE58F84F80819181009721F4B4
:1025C000C701B8010E94A50F809156079091570747
:1025D000009791F1AFEFBFE81197F1F700C000004D
:1025E00010925B0710925A07CCEFD0E080EA90E09F
:1025F000FE01199586E69EE00197F1F700008091B3
:102600005A0790915B07009779F480EA90E0FE0109
:102610001995A6E6BEE01197F1F7000080915A07E0
:1026200090915B07009789F310925B0710925A070D
:102630001092570710925607C0913011D091311166
:10264000C017D107E1F40E94CF0362ED70E080E093
:1026500090E00E94B704E0E3F1E180819181C81726
:10266000D907D9F38FEF9FE7A3E481509040A040B2
:10267000E1F700C0000081E090E00E94F60481E0F4
:1026800090E00E94F60480915607909157070097BA
:1026900091F1AFEFBFE81197F1F700C00000109281
:1026A0005B0710925A07CCEFD0E080EA90E0FE0181
:1026B000199586E69EE00197F1F7000080915A0790
:1026C00090915B07009779F480EA90E0FE011995FC
:1026D000A6E6BEE01197F1F7000080915A079091AD
:1026E0005B07009789F310925B0710925A071092CC
:1026F000570710925607C701B8010E94C50C80E029
:1027000090E0DF91CF911F910F91FF90EF9008958E
:10271000EF92FF920F931F93CF93DF93EC018B0106
:1027200010925B0710925A070F2EF4E0EF2EF1E0A3
:10273000FF2EF02D80E590E0BE01A801F70119956C
:102740008FEF9FE80197F1F700C0000080915A07D2
:1027500090915B0781309105C9F080915A07909163
:102760005B078130910591F080E590E0BE01A80102
:10277000F7011995A6E6BEE01197F1F700008091E8
:102780005A0790915B078130910571F710925B07B2
:1027900010925A07CE01B8010E94EA0D81E066E06E
:1027A000AE0122E030E00E94000281E06AE0A80170
:1027B00022E030E00E9400022AE130E0C29FC00126
:1027C000C39F900DD29F900D1124800F911FFC018B
:1027D000EE0FFF1FE050FE4F8081918183369105FF
:1027E000F1F1C29FC001C39F900DD29F900D1124A3
:1027F000800F911FFC01EE0FFF1FEE58F84F8081F4
:1028000091818130910571F4809164079091650701
:1028100001969093650780936407CE01B8010E94EA
:10282000301222C08FEF9FE3A2E081509040A04081
:10283000E1F700C00000CE01B8010E942F0F009701
:1028400089F48091640790916507019690936507DC
:1028500080936407CE01B8010E94301205C08FEF4B
:102860009FEF02C08FEF9FEFDF91CF911F910F91EC
:10287000FF90EF9008958F929F92AF92BF92CF9268
:10288000DF92EF92FF920F931F93CF93DF935B0141
:102890004A010E94820890938716809386161092B0
:1028A0005F0710925E07823091050CF450C00AE871
:1028B00016E1C1E0D0E00F2EF2E3EF2EF1E1FF2EA2
:1028C000F02DC401880F991F82959295907F9827CB
:1028D000807F98270F2EFEEDCF2EFCE0DF2EF02D0F
:1028E000C80ED91ED093BB0CC093BA0CF8016081FE
:1028F000718180914C0790914D070E9488139C0133
:102900008230910549F4F80140815181F7018081BD
:10291000918148175907D1F3F60180819181813067
:102920009105A9F0FFEF2F3F3F0739F481E090E0D8
:1029300090935F0780935E070AC021960E5F1F4F3A
:102940008091861690918716C817D9075CF28091FE
:102950005E0790915F07009741F080914C0790913E
:102960004D07B501A4010E943B1480E090E0DF9187
:10297000CF911F910F91FF90EF90DF90CF90BF907C
:10298000AF909F908F9008950F931F93CF93DF93F5
:1029900080914C0790914D0767E170E00E9482089A
:1029A00082309105DCF00AE816E1EC01CC0FDD1F66
:1029B000C857D94EF801619171918F0180914C07F0
:1029C00090914D070E948813FFEF8F3F9F0721F0E2
:1029D0000C171D0779F702C00E94C41480E090E034
:1029E000DF91CF911F910F9108952F923F924F92B7
:1029F0005F926F927F928F929F92AF92BF92CF928F
:102A0000DF92EF92FF920F931F93CF93DF930E9479
:102A1000050E7C012FEF8F3F920709F4F5C08091DE
:102A20004C0790914D07F701EE0FFF1FE295F295CD
:102A3000F07FFE27E07FFE27E653F34F208D318D98
:102A400028173907B1F1F701EE0FFF1FE295F29554
:102A5000F07FFE27E07FFE27E653F34F228D338D74
:102A60002817390749F1F701EE0FFF1FE295F2959C
:102A7000F07FFE27E07FFE27E653F34F248D358D50
:102A800028173907E1F0F701EE0FFF1FE295F295E5
:102A9000F07FFE27E07FFE27E653F34F41E050E052
:102AA000268D378D2817390711F440E050E05A0180
:102AB00008C0AA24BB2405C0AA24BB2402C0AA249F
:102AC000BB24C701880F991F82959295907F982704
:102AD000807F98278C010E51134F0F2EFAEECF2EC8
:102AE000FCE0DF2EF02DC80ED91EE8016624772405
:102AF000C701880F991F82959295907F9827807FB4
:102B000098270F2EFEED8F2EFCE09F2EF02D880EC5
:102B1000991E4424552443942224332469917991A5
:102B20006115710509F440C070936D0760936C07DF
:102B3000A114B10481F080914C0790914D07A70139
:102B40000E943B14F401808191818130910509F448
:102B50005EC0510129C020914C0730914D07CB0137
:102B6000821B930B1AF4909581959F4F81309105AC
:102B700019F08530910589F4C9010E948813F40188
:102B8000208131812130310509F444C0FFEF8F3FAE
:102B90009F0751F080E090E048C0F401808191816E
:102BA00081309105D1F13201CC15DD0509F0B6CFA8
:102BB00061147104A9F1C701880F991F829592953C
:102BC000907F9827807F9827EC01C252D34FF8015D
:102BD000619171918F016115710581F070936D079D
:102BE00060936C0780914C0790914D07A7010E945C
:102BF0003B148881998181309105A9F00C151D0540
:102C000031F780E090E011C08FEF9FEF0EC081E0C0
:102C100090E00BC081E090E008C081E090E005C04A
:102C200080E090E002C081E090E0DF91CF911F91C1
:102C30000F91FF90EF90DF90CF90BF90AF909F905B
:102C40008F907F906F905F904F903F902F9008955E
:102C5000E1ECF0E010821092C00086E08093C200A8
:102C60008FE58093C4001092C50088E980830895A1
:102C70001F920F920FB60F920BB60F9211240F9363
:102C80001F932F933F934F935F936F937F938F93F4
:102C90009F93AF93BF93CF93DF93EF93FF93809175
:102CA000C60090E090930517809304178091041755
:102CB000909105178E31910521F180910417909123
:102CC000051782339105E9F080910417909105175B
:102CD00086349105B1F080910417909105178535E0
:102CE000910579F080910417909105178A35910527
:102CF00041F080910417909105178436910509F0F1
:102D000068C080910417909105178634910569F188
:102D10008734910544F48E31910589F08233910511
:102D200009F058C117C08A359105C9F1843691055B
:102D300009F448C08535910509F04CC125C081E0F2
:102D400090E090935F0780935E0710926307109264
:102D5000620740C181E090E090936307809362072F
:102D600010925F0710925E0735C181E090E090936A
:102D700055078093540710925F0710925E071092D8
:102D800063071092620726C181E090E09093570795
:102D90008093560784E690E00E94FC001BC181E00E
:102DA00090E090935107809350071092550710922E
:102DB000540710925F0710925E07109263071092FB
:102DC000620708C181E090E090935B0780935A0707
:102DD00001C18091500790915107009709F456C0A6
:102DE000809104179091051790937D1680937C161F
:102DF0002091BA0C3091BB0CA90141505040609118
:102E0000861670918716641775076CF1A0917C1671
:102E1000B0917D16FA01EE0FFF1FE857F94E808141
:102E200091818A179B0789F409C081919191209122
:102E30007C1630917D168217930761F481E090E053
:102E400090934F0780934E070EC0F901EE0FFF1FBE
:102E5000E857F94E10924F0710924E074F5F5F4FA1
:102E60006417750714F780914E0790914F070097EC
:102E700029F08CE890E00E94FC0004C086E990E014
:102E80000E94FC00109251071092500780915E073B
:102E900090915F07009799F0809104179091051722
:102EA000909307178093061781E090E090935D0759
:102EB00080935C0710925F0710925E0748C0809174
:102EC0005C0790915D07009709F441C08091041759
:102ED000909105179093091780930817A8E0B7E120
:102EE00012978D919C911197E0910817F091091715
:102EF0000AE110E0809F9001819F300D909F300D7E
:102F00001124E20FF31FC0E0D2E0EE0FFF1FEC0F21
:102F1000FD1F43E650E05183408360910817709194
:102F200009172D913C911197609FC001619F900DF1
:102F3000709F900D1124820F931F880F991FC80F47
:102F4000D91F5983488310925D0710925C078091C6
:102F50006207909163070097E9F0809104179091C0
:102F600005179093311180933011109263071092DE
:102F7000620781E090E09093610780936007409141
:102F800030115091311182E067E022E030E00E9480
:102F9000000220C080916007909161070097D1F0F6
:102FA00080910417909105179093331180933211FB
:102FB00010926107109260074091321150913311C5
:102FC00082E06AE022E030E00E94000284E690E0C5
:102FD0000E94FC00FF91EF91DF91CF91BF91AF91E3
:102FE0009F918F917F916F915F914F913F912F9121
:102FF0001F910F910F900BBE0F900FBE0F901F905F
:1030000018950E94880A0E94B70B0E94B50A08957D
:103010000E9422010E94DE050E946D020E9432037E
:103020000E9443030E9446030895F8940E940818E2
:103030000E9491010E9474020E945B030E94490356
:103040000E9452030E9428160E940E060E94EC065F
:103050007894089587E190E090934D0780934C0712
:103060000E9401180E94151880E00E94170684EB48
:103070000E94300666E470E080E090E00E944B041D
:1030800081E090E00E94F6040E94F5142FEF8F3F3C
:103090009207D1F710925B0710925A078CE30E94B7
:1030A000FC0080915A0790915B07009771F48CE3C4
:1030B0000E94FC0086E69EE00197F1F700008091F7
:1030C0005A0790915B07009791F30E94C41487E11F
:1030D00090E068E170E00E94EA0D85E590E00E94D2
:1030E000A20581E090E00E94F60468E270E080E0D2
:1030F00090E00E944B048FEA90E00E94A205E8E86D
:10310000F6E1CF01449611921192E817F907D9F729
:1031100010925B0710925A0780E590E060E070E043
:1031200040E050E00E94040180E791E00197F1F750
:1031300000C080915A0790915B07009799F480E551
:1031400090E060E070E040E050E00E94040186E61C
:103150009EE00197F1F7000080915A0790915B077C
:10316000009769F3FFCF5058BB27AA270ED075C12F
:1031700066D130F06BD120F031F49F3F11F41EF492
:103180005BC10EF4E095E7FB51C1E92F77D180F3E5
:10319000BA17620773078407950718F071F49EF554
:1031A0008FC10EF4E0950B2EBA2FA02D0B01B901A3
:1031B00090010C01CA01A0011124FF27591B99F0AD
:1031C000593F50F4503E68F11A16F040A22F232FB9
:1031D000342F4427585FF3CF469537952795A79509
:1031E000F0405395C9F77EF41F16BA0B620B730BB0
:1031F000840BBAF09150A1F0FF0FBB1F661F771F21
:10320000881FC2F70EC0BA0F621F731F841F48F4D5
:10321000879577956795B795F7959E3F08F0B3CF5B
:103220009395880F08F09927EE0F97958795089545
:10323000D9D008F481E008950CD00FC107D140F037
:10324000FED030F021F45F3F19F0F0C0511139C1C8
:10325000F3C014D198F39923C9F35523B1F3951B07
:10326000550BBB27AA2762177307840738F09F5FA7
:103270005F4F220F331F441FAA1FA9F333D00E2E16
:103280003AF0E0E830D091505040E695001CCAF783
:1032900029D0FE2F27D0660F771F881FBB1F261748
:1032A00037074807AB07B0E809F0BB0B802DBF011B
:1032B000FF2793585F4F2AF09E3F510568F0B6C034
:1032C00000C15F3FECF3983EDCF3869577956795F8
:1032D000B795F7959F5FC9F7880F911D96958795CC
:1032E00097F90895E1E0660F771F881FBB1F6217EB
:1032F00073078407BA0720F0621B730B840BBA0BA9
:10330000EE1F88F7E095089504D06894B111D9C0F4
:103310000895BCD088F09F5790F0B92F9927B751E6
:10332000A0F0D1F0660F771F881F991F1AF0BA9589
:10333000C9F712C0B13081F0C3D0B1E00895C0C068
:10334000672F782F8827B85F39F0B93FCCF386957F
:1033500077956795B395D9F73EF4909580957095DC
:1033600061957F4F8F4F9F4F0895E89409C097FB59
:103370003EF490958095709561957F4F8F4F9F4F4C
:103380009923A9F0F92F96E9BB279395F695879590
:1033900077956795B795F111F8CFFAF4BB0F11F453
:1033A00060FF1BC06F5F7F4F8F4F9F4F16C08823FA
:1033B00011F096E911C0772321F09EE8872F762F30
:1033C00005C0662371F096E8862F70E060E02AF071
:1033D0009A95660F771F881FDAF7880F969587955D
:1033E00097F90895990F0008550FAA0BE0E8FEEF32
:1033F00016161706E807F907C0F012161306E407B9
:10340000F50798F0621B730B840B950B39F40A26B1
:1034100061F0232B242B252B21F408950A2609F48F
:10342000A140A6958FEF811D811D089597F99F6793
:1034300080E870E060E008959FEF80EC089500243C
:103440000A941616170618060906089500240A9409
:1034500012161306140605060895092E0394000C8F
:1034600011F4882352F0BB0F40F4BF2B11F460FF1E
:1034700004C06F5F7F4F8F4F9F4F089557FD905847
:10348000440F551F59F05F3F71F04795880F97FB28
:10349000991F61F09F3F79F08795089512161306E2
:1034A0001406551FF2CF4695F1DF08C01616170611
:1034B0001806991FF1CF8695710561050894089546
:1034C000E894BB2766277727CB0197F908950BD09F
:1034D000C4CFB5DF28F0BADF18F0952309F0A6CFE6
:1034E000ABCF1124EECFCADFA0F3959FD1F3950F98
:1034F00050E0551F629FF001729FBB27F00DB11D78
:10350000639FAA27F00DB11DAA1F649F6627B00D07
:10351000A11D661F829F2227B00DA11D621F739FF0
:10352000B00DA11D621F839FA00D611D221F749FFE
:103530003327A00D611D231F849F600D211D822F45
:10354000762F6A2F11249F5750408AF0E1F088238C
:103550004AF0EE0FFF1FBB1F661F771F881F915099
:103560005040A9F79E3F510570F060CFAACF5F3F52
:10357000ECF3983EDCF3869577956795B795F795CC
:10358000E7959F5FC1F7FE2B880F911D9695879554
:1035900097F90895FA01EE0FFF1F309621053105C6
:1035A00099F16115710561F48038BFE39B0749F11A
:1035B00068949038810561F08038BFEF9B0741F037
:1035C000992342F5FF3FE1053105210511F1E8940A
:1035D0000894E795D901AA2329F4AB2FBE2FF85FF1
:1035E000D0F310C0FF5F70F4A695E0F7F73950F004
:1035F00019F0FF3A38F49F779F930CD00F9007FC97
:10360000905808953EF018CF60E070E080E89FE3A6
:1036100008954FE79F775F934F933F932F939ED0EB
:103620002F913F914F915F9152DF05C019F40EF039
:10363000FDCE46CF01CF2ADFC8F39638C0F707F892
:103640000F92E8942BE33AEA48EB5FE74EDF0F92E4
:103650000F920F924DB75EB70F92C0D0E4EEF0E03C
:1036600016D04F915F91EF91FF91E595EE1FFF1FEF
:1036700049F0FE57E0684427EE0F441FFA95E1F742
:103680004195550B32D00F9007FE26C00895DF9369
:10369000CF931F930F93FF92EF92DF927B018C01E8
:1036A000689405C0DA2EEF011EDFFE01E894A591B3
:1036B0002591359145915591AEF3EF0166DDFE01FF
:1036C0009701A801DA9479F7DF90EF90FF900F91BE
:1036D0001F91CF91DF9108959B01AC0160E070E0F4
:1036E00080E89FE3A9CDA2CEACC0D0DEE8F3992359
:1036F000D9F3940F511DBBF39150504094F059F001
:10370000882332F0660F771F881F91505040C1F711
:103710009E3F510544F7880F911D9695879597F91F
:1037200008955F3FACF0983E9CF0BB278695779557
:103730006795B79508F4B1609395C1F7BB0F58F73B
:1037400011F460FFE8CF6F5F7F4F8F4F9F4FE3CF44
:10375000B8CE0EF076C070CE689468CE97DEC8F30F
:103760009923D1F3C6F3DF93CF931F930F93FF9267
:10377000C92FDD2788232AF02197660F771F881F1E
:10378000DAF720E030E040E85FEB9FE3883920F093
:10379000803E30F021968F77E7DCECE0F1E003C06B
:1037A000E3DCE9E3F1E073DF8B01BE01EC01FB2E0A
:1037B0006F5771097595771F880B990BD8DD28E134
:1037C00032E741E35FE38FDEAF2D9801AE01FF905A
:1037D0000F911F91CF91DF91D8DC3FCEFA01DC0130
:1037E000AA0FBB1F9B01AC01BF5728F42227332728
:1037F000442750781FC0B75188F4AB2F002446955A
:1038000037952795011CA395D2F3002069F0220F6C
:10381000331F441FB395DAF30DD0A5CC6130710589
:10382000A0E88A07B94630F49B01AC0166277727E8
:1038300088279078309621F0208331834283538308
:1038400008959F3F31F0915020F4879577956795C3
:10385000B795880F911D9695879597F90895AA1B9E
:10386000BB1B51E107C0AA1FBB1FA617B70710F06B
:10387000A61BB70B881F991F5A95A9F7809590959D
:10388000BC01CD01089597FB092E07260AD077FDCC
:1038900004D0E5DF06D000201AF4709561957F4FC3
:1038A0000895F6F7909581959F4F0895A1E21A2EFD
:1038B000AA1BBB1BFD010DC0AA1FBB1FEE1FFF1FD4
:1038C000A217B307E407F50720F0A21BB30BE40B24
:1038D000F50B661F771F881F991F1A9469F760956B
:1038E0007095809590959B01AC01BD01CF01089525
:0438F000F894FFCF7A
:1038F40000000000000000000000000000000000C4
:1039040000000000000000000000000000000000B3
:1039140000000000000000000000000000000000A3
:103924000000000000000000010000000000000092
:103934000100000000000000000000000000000082
:103944000000000000000000000000000000000073
:103954000000000000000000000001000000010061
:103964000000000000000100000000000000000052
:103974000000000000000000000000000000000043
:103984000000000000000000000000000000000033
:103994000100000001000000000000000100000020
:1039A4000000000000000000000000000000000013
:1039B4000000000000000000000000000000000003
:1039C40000000000000001000000010000000000F1
:1039D40000000100000000000000000000000000E2
:1039E40000000000000000000000000000000000D3
:1039F40000000000000000000000000001000000C2
:103A040000000000000000000100000000000000B1
:103A140000000000000000000000000000000000A2
:103A24000000000000000000000001000000000091
:103A34000000000000000100000000000000010080
:103A44000000000000000000000000000000000072
:103A54000000000000000000000000000000000062
:103A6400010000000000000001000000010000004F
:103A74000000000001000000000000000000000041
:103A84000000000000000000000000000000000032
:103A94000000000000000100000000000000010020
:103AA4000000010000000000000001000000000010
:103AB4000000000000000000000000000000000002
:103AC40000000000000000000000000001000000F1
:103AD40000000000010000000100000000000000E0
:103AE40001000000000000000000000000000000D1
:103AF40000000000000000000000000000000000C2
:103B040000000100000000000000010000000000AF
:103B140000000000000001000000000000000000A0
:103B24000000000000000000000000000000000091
:103B34000000000000000000010000000000000080
:103B4400000000000100000000000000010000006F
:103B54000000000000000000000000000000000061
:103B64000000000000000000000000000000010050
:103B7400000000000000010000000100000000003F
:103B84000000010000000000000000000000000030
:103B94000000000000000000000000000000000021
:103BA400000000000100000000000000010000000F
:103BB40001000000000000000100000000000000FF
:103BC40000000000000000000000000000000000F1
:103BD40000000000000000000000010000000000E0
:103BE40000000100000001000000000000000100CE
:103BF40000000000000000000000000000000000C1
:103C040000000000000000000000000000000000B0
:103C1400010000000000000001000000000000009E
:103C2400000000000100000000000000000000008F
:103C34000000000000000000000000000000000080
:103C4400000000000000010000000000000000006F
:103C5400000001000000000000000100000000005E
:103C64000000000000000000000000000000000050
:103C7400000000000000000000000000010000003F
:103C8400000000000100000001000000000000002E
:103C9400010000000000000000000000000000001F
:103CA4000000000000000000000000000000000010
:103CB40000000100000000000000010000000100FD
:103CC40000000000000001000000000000000000EF
:103CD40000000000000000000000000000000000E0
:103CE40000000000000000000100000000000000CF
:103CF40001000000010000000000000001000000BD
:103D040000000000000000000000000000000000AF
:103D1400000000000000000000000000000001009E
:103D2400000000000000010000000000000000008E
:103D3400000001000000000000000000000000007E
:103D4400000000000000000000000000000000006F
:103D5400000000000100000000000000000000005E
:103D6400010000000000000000000000000000004E
:103D7400000000000000000000000000000000003F
:103D8400000000000000000000000100000000002E
:103D9400000001000000010000000000000000001D
:103DA400000000000000000000000000000000000F
:103DB40000000000000000000000000000000000FF
:103DC40001000000000000000100000001000000EC
:103DD40000000000000000000000000000000000DF
:103DE40000000000000000000000000000000000CF
:103DF40000000000000001000000000000000100BD
:103E040000000100000000000000000000000000AD
:103E1400000000000000000000000000000000009E
:103E2400000000000000000000000000010000008D
:0E3E340000000000010000000E000100170059
:00000001FF
