:100000000C94B3000C94D4000C94D4000C941F07EF
:100010000C94D4000C9404040C94DF030C94D400CE
:100020000C94D4000C94D4000C94D4000C94D40000
:100030000C94D4000C94D4000C94D4000C94D400F0
:100040000C94D4000C94D4000C94D4000C94D400E0
:100050000C94D4000C94D4000C94D4000C94D400D0
:100060000C94D4000C9402170C94D4000C94D4007B
:100070000C94D4000C94D4000C94D4000C94D400B0
:100080000C94D4000C94D4000C94D4000C94D400A0
:100090000C94D4000C94D4000C94D4000C94D40090
:1000A0000C94D4000C94D4000C94D4000C94D40080
:1000B0000C94D4000C94D4000C94D4000C94D40070
:1000C0000C94D4000C94D4000C94D4000C94D40060
:1000D0000C94D4000C94D4000C94D4000C94D40050
:1000E0000C94D40007634236B79BD8A71A396856D8
:1000F00018AEBAAB558C1D3CB7CC5763BD6DEDFD4A
:10010000753EF6177231BF000000803F0800000006
:10011000BE922449123EABAAAA2ABECDCCCC4C3EFC
:1001200000000080BEABAAAAAA3E00000000BF00EB
:100130000000803F0000000000084178D3BB4387E7
:10014000D1133D190E3CC3BD4282AD2B3E68EC82FB
:1001500076BED98FE1A93E4C80EFFFBE01C4FF7F80
:100160003F000000000011241FBECFEFD1E2DEBF30
:10017000CDBF00E00CBF17E0A0E0B2E0E4E7FCE395
:1001800000E00BBF02C007900D92AE34B107D9F763
:1001900018E1AEE4B7E001C01D92AC35B107E1F75C
:1001A0000E9431190C94381E0C940000E1E8F0E034
:1001B00010828CEF8093850081E08093840093E02F
:1001C000909389008FEF8093880090938B008093A9
:1001D0008A0090938D0080938C0090938700809389
:1001E00086008BEA80938000109282008CE08083EE
:1001F000089510928900682F70E080E090E00E94DE
:10020000751B2BE734E14EEE5FE30E94DC1A20E021
:1002100030E04CE052E40E94741A0E94491B609343
:10022000880008955C9A5D9A08950F931F93CF9369
:10023000DF93EC018B0190937707809376070E9400
:100240004F0110934D0700934C074AE150E0049F83
:10025000F001059FF00D149FF00D1124EC0FFD1F10
:100260006AE777E0EE0FFF1FE60FF71F21E030E0AF
:1002700031832083C49FC001C59F900DD49F900DF2
:100280001124800F911F880F991F680F791FFB01A0
:1002900031832083DF91CF911F910F910895209199
:1002A000C80C3091C90C2F5F3F4F3093C90C20937D
:1002B000C80CF901EE0FFF1FE45AFE4E91838083B4
:1002C0000895E0ECF0E0908195FFFDCF8093C600AB
:1002D00008950F931F93CF93DF93EB018A010E9440
:1002E000610180E791E00197F1F700C0CE010E9423
:1002F0006101A0E7B1E01197F1F700C0C8010E94C9
:1003000061018FEF9FE7A4E081509040A040E1F7AA
:1003100000C00000809168079091690781309105C5
:1003200031F481E090E09093610780936007DF9162
:10033000CF911F910F910895CF93DF93EB010E940E
:10034000610180E791E00197F1F700C0CE010E94C2
:10035000610180E791E00197F1F700C0DF91CF9153
:10036000089587B1876F87B988B1807888B9089573
:1003700086E69EE00197F1F700004098419880E3FF
:1003800088B9429AEFEFF7E43197F1F700C0000027
:100390004298E6E6FEE03197F1F700004098419878
:1003A00088B9429AEFEFF7E43197F1F700C0000007
:1003B0004298E6E6FEE03197F1F700004098419858
:1003C00088B9429A8FEF97E40197F1F700C00000D7
:1003D0004298E6E6FEE03197F1F700004098419838
:1003E00080E288B9429A8FEF97E40197F1F700C055
:1003F00000004298089598B19F7098B998B1282F3D
:10040000207F922B98B940984198429AEFEFF7E4F9
:100410003197F1F700C00000429898B19F7098B9E9
:1004200098B18295807F892B88B940984198429AEB
:100430008FEF97E40197F1F700C00000429808950C
:100440000E94B80186E69EE00197F1F7000088E27D
:100450000E94FB0181E00E94FB0186E00E94FB01FB
:100460008EE00E94FB0180E80E94FB01089598B194
:100470009F7098B998B1282F207F922B98B9409AF5
:100480004198429AEFEFF7E43197F1F700C000008E
:10049000429898B19F7098B998B18295807F892BC6
:1004A00088B9409A4198429A8FEF97E40197F1F703
:1004B00000C000004298089580E80E94FB01089562
:1004C000CF93DF93EC018881882331F021960E943D
:1004D000370289918823D9F7DF91CF91089582302F
:1004E00079F0833018F48130C9F405C0833069F0A5
:1004F0008430A1F40FC0862F81580E94FB0108951B
:10050000862F81540E94FB010895862F8D560E94EC
:10051000FB010895862F8D520E94FB0108950F93D1
:100520001F93CF93DF938A01E901882311F066239B
:1005300019F40E945C0202C00E946F02C530D1050E
:1005400051F4C80160E177E20E94EF1D862F805DC3
:100550000E94370203C0C430D10579F4C80168EEA7
:1005600073E00E94EF1DCB016AE070E00E94EF1D76
:10057000805D0E94370281E001C080E0C330D10578
:1005800011F0813071F4C80164E670E00E94EF1D43
:10059000CB016AE070E00E94EF1D805D0E9437028F
:1005A00081E0C230D10511F0813071F42AE030E0F1
:1005B000C801B9010E94EF1DCB01B9010E94EF1DD6
:1005C000805D0E94370281E0C130D10511F0813099
:1005D00041F4C8016AE070E00E94EF1D805D0E9456
:1005E0003702C630D1051CF085E40E943702DF9146
:1005F000CF911F910F91089510BA11BA109207016F
:10060000109208010895EAE7F0E0108210927B0052
:1006100080E280937C0080E880BF86E88083089534
:10062000883018F098E090937B0087708062809308
:100630007C00EAE7F0E0808180648083808184FF31
:10064000FDCF80917900EAE7F0E09081906190839E
:1006500010927B0008950F931F93682F70E080E045
:1006600090E00E94751B2FEE39EC43E95FE30E9496
:100670008A1CB62FA72F382F292F60E070E080E862
:100680009FE3422F0B2F1A2F232F342FA9019801FC
:100690000E94DC1A2AE939EF4EE255E40E94271C39
:1006A00020E030E040E251E40E94271C0E94441BFD
:1006B000882777FD8095982F0E94771B0E94441B06
:1006C000862F972F23E08132920710F080E293E08B
:1006D0001F910F910895EF92FF920F931F93CF9365
:1006E000DF93EC017B018BE00E9410030E942B033F
:1006F000482F082F192F81E061E0592F23E030E0C7
:100700000E948F02C017D10744F481E090E00E15DB
:100710001F052CF080E090E002C080E090E0DF91C7
:10072000CF911F910F91FF90EF90089581B18F604D
:1007300081B982B1807F82B9EAE0F1E0808188618D
:100740008083EBE0F1E080818861808308956C987C
:10075000749A08956D98759A0895F894EAE6F0E011
:10076000808182608083EC9A78940895F894EAE618
:10077000F0E0808188608083ED9A78940895E1E2CA
:10078000F1E010828FEF8093250191E09093240196
:10079000109229018093280110922B0180932A0145
:1007A00010922D0180932C0189EA809320018BE027
:1007B000808308958093280160932A0108951F92F1
:1007C0000F920FB60F9211248F939F93AF93BF9305
:1007D0008091D40C9091D50CA091D60CB091D70CEF
:1007E0000196A11DB11D8093D40C9093D50CA093BC
:1007F000D60CB093D70CBF91AF919F918F910F9072
:100800000FBE0F901F9018951F920F920FB60F9268
:1008100011248F939F93AF93BF938091D80C9091A5
:10082000D90CA091DA0CB091DB0C0196A11DB11D81
:100830008093D80C9093D90CA093DA0CB093DB0C76
:10084000BF91AF919F918F910F900FBE0F901F900E
:10085000189592B1907F8F70982B92B9089586E089
:100860000E9429040895CF93DF93EC010E942F0486
:10087000CE010E945E04DF91CF91089589E00E942D
:100880002904089585E00E94290408958AE00E94C1
:100890002904089584E00E942904089582E00E94BA
:1008A0002904089581E00E942904089588E00E94A7
:1008B0002904089580E00E94290408958F929F9250
:1008C000AF92BF92CF92DF92EF92FF924B015C0109
:1008D0001092D40C1092D50C1092D60C1092D70C0A
:1008E0006091D40C7091D50C8091D60C9091D70C5E
:1008F0000E94751B20EF37EA4AEA50E40E94271C49
:100900006B017C01C501B4010E94751B9B01AC0108
:10091000C701B6010E94D81A882314F30E945A0412
:100920008FEF9FE7A4E081509040A040E1F700C026
:100930000000FF90EF90DF90CF90BF90AF909F901E
:100940008F900895CF93DF93EC010E943E04CE0177
:100950000E945E04DF91CF9108950F931F93CF9370
:10096000BC0180E090E00E94751B28E431EE42E873
:1009700050E40E94DC1A0E94491BDC01CB01A0E07C
:10098000B0E01092D40C1092D50C1092D60C1092AC
:10099000D70C1092D80C1092D90C1092DA0C10923D
:1009A000DB0CF1E0C0E04091D40C5091D50C60918B
:1009B000D60C7091D70C0091D80C1091D90C2091C5
:1009C000DA0C3091DB0CEF2F481759076A077B07C9
:1009D00008F4EC2FEE2349F44F2F081719072A07C4
:1009E0003B0708F44C2F4423F1F20E945A04CF91A4
:1009F0001F910F910895CF93DF93EC018FEF6FEF6D
:100A00000E94DA030E944204CE010E94AD04DF91ED
:100A1000CF910895CF93DF93EC018FEF6FEF0E949A
:100A2000DA030E944604CE010E94AD04DF91CF910B
:100A30000895CF93DF93EC010E944A04CE01880F02
:100A4000991F0E94AD04DF91CF910895CF93DF935A
:100A5000EC010E944E04CE01880F991F0E94AD0444
:100A6000DF91CF910895CF93DF93EC010E94520460
:100A7000CE01880F991F0E94AD04DF91CF91089598
:100A8000CF93DF93EC010E945604CE01880F991F8B
:100A90000E94AD04DF91CF9108958F929F92AF9203
:100AA000BF92CF92DF92EF92FF92CF93DF934B01F1
:100AB0005C011092D40C1092D50C1092D60C1092AE
:100AC000D70C0E942F0425C083E00E941003D82F6A
:100AD00082E00E941003C82F81E00E941003CD30F5
:100AE00038F00E942F048FEF6FEF0E94DA0311C0DD
:100AF000DD3038F00E942F0484E66FEF0E94DA03A5
:100B000008C08D3030F00E942F048FEF64E60E9401
:100B1000DA036091D40C7091D50C8091D60C909131
:100B2000D70C0E94751B20EF37EA4AEA50E40E9476
:100B3000271C6B017C01C501B4010E94751B9B0140
:100B4000AC01C701B6010E94D81A88230CF4BCCFAF
:100B50000E945A048FEF9FE7A4E081509040A0408C
:100B6000E1F700C00000DF91CF91FF90EF90DF90A0
:100B7000CF90BF90AF909F908F900895EF92FF928B
:100B80001F93CF93DF937C010E942F048FEF6FEFB1
:100B90000E94DA03D0E037C083E00E941003182FD0
:100BA00082E00E941003C82F81E00E941003CD3024
:100BB000C8F01D3010F48D3070F0DF5F6AE570E032
:100BC00080E090E00E944D050E942F048FEF6FEFB0
:100BD0000E94DA0318C08FEF6FEF0E94DA030E94C1
:100BE0002F0411C01D3038F084E66FEF0E94DA0345
:100BF0000E942F0408C08D3030F08FEF64E60E9411
:100C0000DA030E942F048D2F90E08E159F0524F2A9
:100C10000E945A048FEF9FE7A4E081509040A040CB
:100C2000E1F700C00000DF91CF911F91FF90EF909E
:100C30000895CF93DF93EC018AEF6AEF0E94DA0305
:100C4000CE0144970E940A0504C083E090E00E9410
:100C50000A0582E00E9410038C30B8F30E945A0407
:100C60008FEF9FE3A2E081509040A040E1F700C0E9
:100C70000000DF91CF910895CF93DF93EC018AEFCD
:100C80006AEF0E94DA03CE0144970E94FB0404C07D
:100C900083E090E00E94FB0482E00E9410038C300D
:100CA000B8F30E945A048FEF9FE3A2E08150904076
:100CB000A040E1F700C00000DF91CF9108953B9A7A
:100CC0004398089586B1886088B9089586B1877F72
:100CD00088B90895CF93DF93EC010E9462061C1639
:100CE0001D067CF480E090E02FEF3FEF4CE22150B6
:100CF00030404040E1F700C0000001968C179D078E
:100D000099F70E946606DF91CF910895259A2D9A52
:100D100008950E9486060E94D60080E090E00E941E
:100D2000F900089583E0809389008FEF8093880015
:100D300008950F931F93CF93DF938C01C091D00C34
:100D4000D091D10CC817D90724F08C179D079CF0BF
:100D500023C08C2F0E94F9008FEF97E40197F1F7E1
:100D600000C00000D093D10CC093D00C2196C017C6
:100D7000D1077CF311C08C2F0E94F9008FEF97E40C
:100D80000197F1F700C00000D093D10CC093D00CB4
:100D900021970C171D077CF3DF91CF911F910F91C5
:100DA00008958091CE0C9091CF0C01969093CF0C2A
:100DB0008093CE0C83309105D9F0843091053CF4BA
:100DC0008130910559F08230910501F50CC08430D5
:100DD000910599F085309105C9F414C080E290E046
:100DE0000E94990613C086E490E00E9499060EC006
:100DF0008CE690E00E94990609C080E990E00E948C
:100E0000990604C084EB90E00E9499060E94920625
:100E10008FEF9FE7A4E081509040A040E1F700C031
:100E2000000008958AB18B6F8AB95A9A0895F89490
:100E3000E9E6F0E0808180628083789408951F92D3
:100E40000F920FB60F9211248F939F93AF93BF937E
:100E50008091CA0C9091CB0CA091CC0CB091CD0C90
:100E60000196A11DB11D8093CA0C9093CB0CA09349
:100E7000CC0CB093CD0CBF91AF919F918F910F90FF
:100E80000FBE0F901F9018950E9412070E9417071F
:100E90000E94120108955E985F9808955E9A5F9A85
:100EA00008955E985F9A08955E9A5F9808950E94EB
:100EB0004B071092CA0C1092CB0C1092CC0C1092D3
:100EC000CD0C8FEF9FE80197F1F700C000008091F3
:100ED000CA0C9091CB0CA091CC0CB091CD0C80930E
:100EE000841790938517A0938617B093871708955A
:100EF0000E944E071092CA0C1092CB0C1092CC0C90
:100F00001092CD0C8FEF9FE80197F1F700C0000021
:100F10008091CA0C9091CB0CA091CC0CB091CD0CCF
:100F20008093801790938117A0938217B0938317B3
:100F300008950E9451071092CA0C1092CB0C109287
:100F4000CC0C1092CD0C8FEF9FE80197F1F700C009
:100F500000008091CA0C9091CB0CA091CC0CB09168
:100F6000CD0C8093381190933911A0933A11B0931E
:100F70003B1108950E9454071092CA0C1092CB0C9A
:100F80001092CC0C1092CD0C8FEF9FE7A4E0815013
:100F90009040A040E1F700C000008091CA0C909101
:100FA000CB0CA091CC0CB091CD0C80933C119093C4
:100FB0003D11A0933E11B0933F1108950F931F93DD
:100FC000EA9A0E9457070FEF1FE322E001501040FA
:100FD0002040E1F700C000000E9478078FEF9FE3F8
:100FE000A2E081509040A040E1F700C000000E94C4
:100FF00099070FEF1FE322E0015010402040E1F776
:1010000000C000000E94BA078FEF9FE3A2E081506A
:101010009040A040E1F700C00000EA98409184179A
:10102000509185176091861770918717009138113C
:101030001091391120913A1130913B118091801714
:1010400090918117A0918217B0918317400F511F83
:10105000621F731F8A019B01080F191F2A1F3B1F64
:10106000C901B80123E030E040E050E00E94161EC4
:101070002A3F31050CF457C04091841750918517D1
:10108000609186177091871780913811909139116E
:10109000A0913A11B0913B1184179507A607B707A5
:1010A000A8F440918417509185176091861770912C
:1010B00087178091801790918117A0918217B09126
:1010C000831784179507A607B70780F1409180170B
:1010D00050918117609182177091831780918417C6
:1010E00090918517A0918617B0918717841795075F
:1010F000A607B707F0F440918017509181176091CF
:101100008217709183178091381190913911A091B5
:101110003A11B0913B1184179507A607B70760F005
:1011200083E090E00BC083E090E008C080E090E0B6
:1011300005C083E090E002C081E090E01F910F9134
:1011400008958130910551F08230910561F000974A
:1011500079F48BB1847F8BB9589A08958BB1847FD1
:101160008BB9599A08958BB1847F8BB95B9A089596
:101170008BB1847F8BB908952F923F924F925F92EB
:101180006F927F928F929F92AF92BF92CF92DF9297
:10119000EF92FF920F931F93CF93DF93CDB7DEB7FC
:1011A000CC5DD0400FB6F894DEBF0FBECDBF4C0172
:1011B000C752DF4F79836883C95DD04084E3FE0165
:1011C000E759FF4FDF011D928A95E9F761E070E072
:1011D000A4E3B0E009E110E043E650E011C08081F3
:1011E0009181009711F45183408321503040329611
:1011F00021153105A1F76F5F7F4F6A31710559F0F5
:101200006A9FF0016B9FF00D7A9FF00D1124EE5F45
:10121000FD4F9801E4CF8E010D5F1F4FBE01695C49
:101220007F4FCE01C596DB01F80123E630E04FEF9A
:101230005FEF219331934D935D93E817F907C9F759
:10124000C401880F991FE9E6F0E0EC0FFD1FE80FDD
:10125000F91F21E030E0318320838C0F9D1FFC01BA
:1012600012821182C752DF4FE881F981C95DD040F7
:10127000EE0FFF1F29E630E02C0F3D1FE20FF31F9A
:1012800080819181009709F467C0E3C0D7018D91F7
:101290009D917D01D5012D913C911197280F391F0A
:1012A000BF01808191812817390784F4C552DF4F2F
:1012B000A881B981CB5DD0408D919C911197009709
:1012C00029F431832083D8018D929C92DB018D918A
:1012D0009C91119732968C159D0574F4C552DF4F81
:1012E000A881B981CB5DD0402D913C9111972115FA
:1012F000310511F46C013A014F5F5F4FC552DF4F6A
:1013000028813981CB5DD0402E5F3F4FC552DF4FE2
:1013100039832883CB5DD0400E5F1F4F4A31510582
:1013200009F0B4CFC301880F991FA9E6B0E0AC0F54
:10133000BD1F8A0F9B1FFC0151824082CD52DF4F9F
:10134000A881B981C35DD0408D919C911197009780
:1013500009F07FC043013BC00F2EF4E32F2E33244E
:10136000F02DE9E6F0E0EC0FFD1F3296CF52DF4F93
:10137000F983E883C15DD040CB52DF4F6883C55D00
:10138000D040CA52DF4F7883C65DD040C952DF4F8C
:101390000883C75DD040C852DF4F1883C85DD04076
:1013A000442455244394C752DF4F88819981C95DF5
:1013B000D040880F991F29E630E02C0F3D1F280FE1
:1013C000391FCD52DF4F39832883C35DD040829CC3
:1013D000C001839C900D929C900D11240F2EF2E081
:1013E000EF2EF2E0FF2EF02DE80EF91ECF52DF4F68
:1013F00068817981C15DD040CB52DF4F0881C55DE6
:10140000D040CA52DF4F1881C65DD040C952DF4F6D
:10141000E881C75DD040C852DF4FF881C85DD04039
:101420000F2EF3E6CF2EDD24F02D66247724A201C3
:10143000C401880F991FAA24BB24A394AC0EBD1E1F
:10144000A80EB91EC552DF4F79836883CB5DD040AB
:101450001DCFC752DF4F88819981C95DD040AFEF62
:101460008F3F9A07D9F0FE01E356FF4F40E050E06E
:10147000819391934F5F5F4FDC01AA0FBB1F21E067
:1014800030E02C0F3D1FA20FB31FD4968D919C917D
:10149000D5973FEF8F3F930759F702C040E050E0E8
:1014A000FA01EE0FFF1F8DE990E08C0F9D1FE80FF2
:1014B000F91F11821082AAE8B7E19D01CD01C496FF
:1014C000FD0111921192E817F907D9F7CA010197A6
:1014D00092F0CA01880F991FEDE9F0E0EC0FFD1FB3
:1014E000E80FF91F820F931F329122912D933D93A4
:1014F000A817B907C9F7842F952FC452DF4F0FB62D
:10150000F894DEBF0FBECDBFDF91CF911F910F9139
:10151000FF90EF90DF90CF90BF90AF909F908F9013
:101520007F906F905F904F903F902F90089580E054
:1015300090E024E232E142E050E0FC01EE0FFF1FB8
:10154000E20FF31F5183408301968A309105A9F77A
:101550000895DC01FB01EE0FFF1FE295F295F07F8D
:10156000FE27E07FFE27E452F34F938382830196A8
:1015700095878487AD014B5F5F4F558344839D0101
:101580002A5F3F4F37872687B783A683518B408BCF
:1015900091878087338B228BB18FA08F938F828F1F
:1015A000358F248F578F468F0895CF93DF93C1E0F7
:1015B000D0E0C530D1052CF4CE01BE010E94A90AAD
:1015C0001AC0C930D10534F4CE010196BE010E9483
:1015D000A90A11C0CD30D10534F4CE010296BE0166
:1015E0000E94A90A08C0C131D1052CF4CE0103968E
:1015F000BE010E94A90A2196C131D105D1F6DF9121
:10160000CF9108952F923F924F925F926F927F9267
:101610008F929F92AF92BF92CF92DF92EF92FF9202
:101620000F931F93CF93DF93EEE1FFE00F2EFCEFBC
:10163000CF2EFFEFDF2EF02D0F2EF8EF2F2EFFEF26
:101640003F2EF02D0F2EFDEF4F2EFFEF5F2EF02DD2
:101650000F2EF9EF6F2EFFEF7F2EF02D0F2EFEEFE6
:10166000AF2EFFEFBF2EF02D0F2EFAEF8F2EFFEFD4
:101670009F2EF02D0BEF1FEFEE24EA94FE2CC0E01E
:10168000D0E021E030E026303105ACF4C90165E05E
:1016900070E00E94031E8130910519F43383228388
:1016A00081C0009719F4D183C0837CC0D183C083EB
:1016B0003383228377C02B303105ECF4C90165E018
:1016C00070E00E94031E8130910529F4D383C28308
:1016D000D782C68267C0009729F4F182E082158321
:1016E000048360C0F182E08215830483D383C283C4
:1016F000D782C68257C020313105ECF4C90165E0BC
:1017000070E00E94031E8130910529F4178306833F
:10171000F382E28247C0009729F495828482B182E5
:10172000A08240C017830683F382E282958284827E
:10173000B182A08237C025313105ECF4C90165E0E2
:1017400070E00E94031E8130910529F49782868201
:10175000B382A28227C0009729F4758264825182E5
:10176000408220C097828682B382A2827582648280
:101770005182408217C02A313105A4F4C90165E0C5
:1017800070E00E94031E8130910519F47782668211
:1017900009C0009719F43582248204C077826682DA
:1017A000358224822F5F3F4F219676960894E11C64
:1017B000F11C0F5F1F4F0894811C911C0894A11C01
:1017C000B11C0894611C711C0894411C511C0894A4
:1017D000211C311C0894C11CD11C2A31310509F08F
:1017E00052CFDF91CF911F910F91FF90EF90DF903B
:1017F000CF90BF90AF909F908F907F906F905F90B1
:101800004F903F902F9008956F927F928F929F926A
:10181000AF92BF92CF92DF92EF92FF920F931F93FE
:10182000CF93DF930F2EF4EDAF2EF7E1BF2EF02D07
:101830000F2EF6E1CF2EFFE0DF2EF02DC2E0D0E03C
:10184000EE24FF24E39400E010E00F2EF5E08F2E4D
:101850009924F02D0F2EFCEF6F2EFEE07F2EF02D41
:101860002AC046305105CCF0CA01880F991F840F59
:10187000951F9C01220F331F220F331F220F331F8E
:10188000B901681B790BCB01840F951FF301E80F99
:10189000F91FC8010397938382830F5F1F4F08943A
:1018A000E11CF11C219682E090E0A80EB91EE6E151
:1018B000F0E0CE0EDF1E9701F5E1EF16F1042CF4F7
:1018C000C8010696F60191838083C901B4010E9484
:1018D000031E8130910541F0101611061CF4F6012B
:1018E00013830283009759F0AE01CA31D10584F405
:1018F000F601D583C483F50111821082B2CFF501C0
:1019000011821082AE01CA31D1050CF4AACF07C0F2
:10191000F901EE0FFF1FEE52F84E11821082DF9197
:10192000CF911F910F91FF90EF90DF90CF90BF90DC
:10193000AF909F908F907F906F90089520914A076D
:1019400030914B0722303105D1F1233031052CF491
:101950002130310509F0AEC009C02330310509F44A
:1019600057C02430310509F0A5C07CC0861B970BF9
:101970002FEF8F3F9207D1F08130910571F02FEF5B
:101980008B3F920709F099C082E090E090934B075B
:1019900080934A0784EB90E0089583E090E0909371
:1019A0004B0780934A078EE091E0089584E090E031
:1019B00090934B0780934A078AE590E00895861B31
:1019C000970B8130910591F08530910531F02FEF23
:1019D0008F3F920709F074C012C081E090E09093AD
:1019E0004B0780934A0784EB90E0089583E090E0F2
:1019F00090934B0780934A078AE590E0089584E02E
:101A000090E090934B0780934A078EE091E0089511
:101A1000861B970B2FEF8F3F9207D9F085309105EA
:101A200031F02FEF8B3F920709F04DC009C081E0E4
:101A300090E090934B0780934A078AE590E00895E1
:101A400082E090E090934B0780934A078EE091E00C
:101A5000089584E090E090934B0780934A0784EBCD
:101A600090E00895861B970B81309105D1F0853069
:101A7000910529F02FEF8B3F920741F509C081E0D6
:101A800090E090934B0780934A078EE091E0089591
:101A900082E090E090934B0780934A078AE590E0BC
:101AA000089583E090E090934B0780934A0784EB7E
:101AB00090E0089580E090E0089580E090E008953F
:101AC00080E090E0089580E090E0089580E090E06C
:101AD00008950E949E0C843B910561F021E08E30B8
:101AE000920769F08A35910571F48AE590E00E94C9
:101AF0001906089584EB90E00E94190608958AE57E
:101B000090E00E943C0608950F931F93CF93DF93BC
:101B10008C01EB0182E390E0B801AE010E94690103
:101B2000C801BE010E94690D81E090E00E94BE05DF
:101B300081E090E00E94BE05D0934D07C0934C0712
:101B4000DF91CF911F910F9108950F931F93CF9322
:101B5000DF938C01EB018FEF9FE7A4E08150904071
:101B6000A040E1F700C0000080E590E06CED70E07F
:101B70000E946B03009749F14AE150E0049FF00195
:101B8000059FF00D149FF00D1124EC0FFD1F60E078
:101B900072E0EE0FFF1FE60FF71F23E630E0318300
:101BA0002083C49FC001C59F900DD49F900D112428
:101BB000800F911F880F991F680F791FDB01119605
:101BC0003C932E9381E090E002C080E090E0DF91B2
:101BD000CF911F910F910895CF93DF93FC01EA01FC
:101BE000861B970B2FEF8F3F920751F1AFEF8F3F7F
:101BF0009A0709F034F4BFEF8B3F9B0709F065C0EB
:101C00004DC08130910529F08530910509F05DC006
:101C10002EC0CF01880F991F8E0F9F1F9C01220F8E
:101C2000331F220F331F220F331F281B390BE20FE4
:101C3000F31FE450F14F848595854089518949C04F
:101C4000CF01880F991F8E0F9F1F9C01220F331FFA
:101C5000220F331F220F331F281B390BE20FF31FF4
:101C6000E450F14F828993894685578532C0CF0170
:101C7000880F991F8E0F9F1F9C01220F331F220F69
:101C8000331F220F331F281B390BE20FF31FE450C1
:101C9000F14F80899189428953891BC0CF01880FF8
:101CA000991F8E0F9F1F9C01220F331F220F331F7E
:101CB000220F331F281B390BE20FF31FE450F14FA3
:101CC000868597854485558504C040E050E080E0D6
:101CD00090E0FE01EE0FFF1FEC5DFD4E2081318193
:101CE0002115310509F0CEC0FE01EE0FFF1FE85BA4
:101CF000FE4E208131812817390709F07AC0CE01C4
:101D0000880F991FFC01EC5DFD4E21E030E031832E
:101D10002083885F974EFC0180819181009709F0B4
:101D20004FC066E470E080E090E00E944D058EE1D7
:101D300090E00E94FB048FEF9FEFACE28150904057
:101D4000A040E1F700C000000E943E046EE170E098
:101D500080E090E00E945E048FEF9FEFACE2815044
:101D60009040A040E1F700C0000088E290E00E94AF
:101D7000330581E090E00E946A0688E290E00E94CC
:101D800026058FEF9FEFACE281509040A040E1F735
:101D900000C000000E942F046EE170E080E090E03F
:101DA0000E945E048FEF9FEFACE281509040A04014
:101DB000E1F700C0000088E290E00E9419066AC0C6
:101DC0006EE170E080E090E00E944D0582E390E0DB
:101DD0000E94FB040E94D10683E090E00E94A108CB
:101DE00081E090E00E946A0688E290E00E94190675
:101DF00051C0FE01EE0FFF1FE85BFE4E8081918116
:101E00008417950709F041C0CE01880F991FFC0186
:101E1000EC5DFD4E21E030E031832083885F974EFA
:101E2000DC018D919C911197009799F462E370E029
:101E300080E090E00E944D0585E590E00E940A0553
:101E400081E090E00E946A0685E590E00E943C06F1
:101E500021C067E370E080E090E00E944D058AE5D4
:101E600090E00E940A050E94D10683E090E00E9463
:101E7000A10881E090E00E946A0685E590E00E945A
:101E80003C0608C080E090E002C080E090E0DF9176
:101E9000CF910895CC0FDD1FC85BDE4EE881F9813C
:101EA000EE0FFF1FE295F295F07FFE27E07FFE2701
:101EB000E452F34F81E090E0958B848BE8CFCF9391
:101EC000DF93FC01EA01861B970B2FEF8F3F9207F0
:101ED00051F12FEF8F3F920709F034F42FEF8B3F32
:101EE000920709F065C04DC08130910529F0853019
:101EF000910509F05DC02EC0CF01880F991F8E0F8C
:101F00009F1F9C01220F331F220F331F220F331FED
:101F1000281B390BE20FF31FE450F14F84859585A0
:101F20004089518949C0CF01880F991F8E0F9F1F8B
:101F30009C01220F331F220F331F220F331F281B38
:101F4000390BE20FF31FE450F14F828993894685E4
:101F5000578532C0CF01880F991F8E0F9F1F9C019C
:101F6000220F331F220F331F220F331F281B390B61
:101F7000E20FF31FE450F14F808991894289538920
:101F80001BC0CF01880F991F8E0F9F1F9C01220F2E
:101F9000331F220F331F220F331F281B390BE20F71
:101FA000F31FE450F14F868597854485558504C01D
:101FB00040E050E080E090E0FE01EE0FFF1FEC5D9E
:101FC000FD4E208131812115310509F082C0FE01CD
:101FD000EE0FFF1FE85BFE4E208131812817390785
:101FE000B9F5CE01880F991FFC01EC5DFD4E21E093
:101FF00030E031832083885F974EFC01808191819E
:10200000009769F486E590E00E94FB0481E090E08F
:102010000E946A0685E590E00E94190662C06CE3A2
:1020200070E080E090E00E944D0586E590E00E941F
:10203000FB040E94D10683E090E00E94A10881E0A9
:1020400090E00E946A0685E590E00E94190649C06A
:10205000FE01EE0FFF1FE85BFE4E80819181841729
:102060009507D1F5CE01880F991FFC01EC5DFD4E5F
:1020700021E030E031832083885F974EFC0180812E
:102080009181009769F486E590E00E940A0581E05D
:1020900090E00E946A0685E590E00E943C0621C01F
:1020A0006CE370E080E090E00E944D0586E590E0F2
:1020B0000E940A050E94D10683E090E00E94A108D8
:1020C00081E090E00E946A0685E590E00E943C066F
:1020D00008C080E090E002C080E090E0DF91CF9106
:1020E0000895CC0FDD1FC85BDE4EE881F981EE0F4D
:1020F000FF1FE295F295F07FFE27E07FFE27E45276
:10210000F34F81E090E0958B848BE8CF2091C80C51
:102110003091C90C332374F0F901EE0FFF1FE45A1C
:10212000FE4E80819181215030403093C90C209324
:10213000C80C08958FEF9FEF0895CF93DF93C09160
:102140004C07D0914D070E948610BC01CE010E9421
:10215000840DDF91CF910895ECE5F1E184E292E105
:1021600011921192E817F907D9F71092C90C109241
:10217000C80C0895CF92DF92EF92FF920F931F93B6
:10218000CF93DF93EC018B016A01109261071092EB
:1021900060070F2EF9E6EF2EF1E0FF2EF02D82E31F
:1021A00090E0BE01A801F70119958FEF9FE8019714
:1021B000F1F700C0000080916007909161078130C5
:1021C0009105C9F080916007909161078130910578
:1021D00091F082E390E0BE01A801F701199586E62F
:1021E0009EE00197F1F700008091600790916107F0
:1021F0008130910571F71092610710926007CE014E
:10220000B8010E94690D81E066E0AE0122E030E095
:102210000E948F0281E06AE0A80122E030E00E9483
:102220008F028AE190E0C89F9001C99F300DD89F2E
:10223000300D1124200F311FF901EE0FFF1FE05068
:10224000FE4F808191818336910509F442C08AE175
:1022500090E0C89F9001C99F300DD89F300D112488
:10226000200F311FF901EE0FFF1FE658F84F808154
:1022700091818130910579F480916E0790916F077B
:10228000019690936F0780936E07CE01B801A60167
:102290000E94041520C0CE01B8010E94A50D009730
:1022A00049F08EE190E0BE01A801F70119958FEF8A
:1022B0009FEF11C080916E0790916F0701969093E8
:1022C0006F0780936E07CE01B801A6010E94041526
:1022D00002C08FEF9FEFDF91CF911F910F91FF9081
:1022E000EF90DF90CF9008952F923F924F925F92A0
:1022F0006F927F928F929F92AF92BF92CF92DF9216
:10230000EF92FF920F931F93CF93DF9300D000D0F3
:10231000CDB7DEB74C016B012A0100914611109137
:10232000471106171707C1F40E943E0460EF70E0E2
:1023300080E090E00E945E04E4E4F1E1808191811C
:1023400008171907D9F786E69EE00197F1F7000014
:1023500066247724639402C0662477240091441194
:10236000109145110C151D0509F086C0809144118E
:10237000909145110817190741F4809146119091E9
:1023800047118815990509F477C06114710459F44F
:102390000E943E0460EF70E080E090E00E945E04E6
:1023A00066247724639410926107109260070F2EC1
:1023B000F1E6EF2EF1E0FF2EF02D85E590E0F7013C
:1023C0001995AFEFBFE81197F1F700C000008091B9
:1023D000600790916107009779F485E590E0F70137
:1023E0001995E6E6FEE03197F1F70000809160076D
:1023F00090916107009789F310926107109260072E
:1024000080915C0790915D07009791F50F2EF4E4A1
:102410002F2EF1E13F2EF02D0F2EF6E4AF2EF1E13D
:10242000BF2EF02D85E590E0F7011995D1018D9132
:102430009C91119708171907D9F48D919C911197C8
:102440000817190731F4F5018081918188159905E4
:1024500079F02FEF3FE744E0215030404040E1F772
:1024600000C0000080915C0790915D070097D1F259
:1024700010925D0710925C07A0904411B090451136
:10248000AC14BD0409F000C1C0904611D0904711B2
:10249000C814D90409F0F8C06114710459F40E94F9
:1024A0003E0460EF70E080E090E00E945E046624ED
:1024B0007724639440914C0750914D075C834B8384
:1024C000C601880F991F8C0D9D1D9C01220F331F83
:1024D000220F331F220F331FD901A81BB90BCD01C7
:1024E0008C0D9D1D8C010250114FEE24FF24E394AE
:1024F0002224332423948AE190E0C89EF001C99EEF
:10250000F00DD89EF00D1124FA83E983C5011E83D6
:102510000D8356018C01CD80DE80D6016D917C91BA
:1025200011976115710509F483C00617170709F49F
:1025300081C08091C80C9091C90C880F991F845A52
:102540009E4EFC01808191816817790709F474C05F
:1025500089819A81860F971F880F991F80509E4FFF
:10256000DC018D919C9111978336910509F466C029
:10257000C5010E94690DF60160817181C5010E944B
:10258000A50D009709F05CC01092630710926207D6
:1025900040914C0750914D07CA01880F991F9A012D
:1025A000220F331F220F331F220F331F820F931F5F
:1025B000840F951F8E0D9F1D880F991F8450914F7A
:1025C000DC016D917C918AE590E00E949C012D8157
:1025D0003E8180916207909163070097D1F33E831B
:1025E0002D838091640790916507009759F1409180
:1025F0004C0750914D07CA01880F991F9A01220F6D
:10260000331F220F331F220F331F820F931F840F9C
:10261000951F8E0D9F1D880F991F8450914FFC01AF
:1026200060817181C5010E94840D80E090E00BC043
:10263000C10109C0C10107C0C10105C0C10103C07A
:10264000C10101C0C1010894E11CF11C2D813E8132
:102650002E5F3F4F3E832D8335E0E316F10409F0F2
:102660005ACF58018130910511F40E949D1080913C
:102670004C0790914D076B817C81A2010E94BA109A
:10268000C401B5010E94690D6114710421F081E05B
:1026900090E00E94BE0526960FB6F894DEBF0FBEEE
:1026A000CDBFDF91CF911F910F91FF90EF90DF9001
:1026B000CF90BF90AF909F908F907F906F905F90E2
:1026C0004F903F902F9008952F923F924F925F929C
:1026D0006F927F928F929F92AF92BF92CF92DF9232
:1026E000EF92FF920F931F93CF93DF9300D00F923F
:1026F000CDB7DEB74C015B012A0120914611309124
:1027000047112617370761F4E6E4F1E180819181F2
:1027100028173907D9F386E69EE00197F1F7000004
:1027200000914411109145110A151B0509F078C05C
:1027300080914411909145110817190741F4809137
:102740004611909147118815990509F469C01092B6
:102750006107109260070F2EF1E6EF2EF1E0FF2ED9
:10276000F02D85E590E0F701199580916007909133
:102770006107009779F485E590E0F7011995A6E6E1
:10278000BEE01197F1F7000080916007909161071A
:10279000009789F3109261071092600780915C079F
:1027A00090915D07009771F50F2EF4E46F2EF1E123
:1027B0007F2EF02D0F2EF6E4CF2EF1E1DF2EF02D3F
:1027C00085E590E0F7011995F30180819181081763
:1027D0001907C1F4808191810817190739F4D601CE
:1027E0008D919C9111978815990561F0EFEFFFE8A5
:1027F0003197F1F700C0000080915C0790915D0770
:102800000097F1F22FEF3FEF4CE221503040404073
:10281000E1F700C0000010925D0710925C0710C045
:1028200080914411909145118A159B0549F48FEFD1
:102830009FEFA9E581509040A040E1F700C0000063
:1028400000914411109145110A151B0509F0C5C0EE
:10285000C0904611D0904711C814D90409F0BDC0EA
:10286000C601880F991F8C0D9D1D9C01220F331FDF
:10287000220F331F220F331FD901A81BB90BCD0123
:102880008C0D9D1DFC01E250F14FFC83EB83EE2487
:10289000FF24E3940F2EFCE52F2EF1E13F2EF02DC7
:1028A0008AE190E0C89E9001C99E300DD89E300DFF
:1028B00011243A8329836B807C80D3016D917C91B4
:1028C00011976115710509F469C00617170709F416
:1028D00065C08091C80C9091C90C880F991F820D1A
:1028E000931DFC01808191816817790709F456C016
:1028F00089819A81860F971F880F991F80509E4F5C
:10290000DC018D919C9111978336910509F446C0A5
:10291000C6010E94690DF30160817181C6010E94A8
:10292000A50D0097D9F51092630710926207D301A5
:102930006D917C918AE590E00E949C0180916207F4
:10294000909163070097D1F32FEF3FEF48E02150BC
:1029500030404040E1F700C0000080916407909152
:1029600065070097D9F0C601880F991F9601220FBD
:10297000331F220F331F220F331F820F931F8C0D23
:102980009D1D8E0D9F1DFC01EE0FFF1FE450F14FAA
:1029900060817181C6010E94840D0FC00894E11C02
:1029A000F11C4B815C814E5F5F4F5C834B8355E034
:1029B000E516F10409F07FCF0DC080914C0790918E
:1029C0004D07B401A2010E94BA10C401B5010E94D2
:1029D000690D03C00E949D10F0CF0F900F900F90D3
:1029E0000F90DF91CF911F910F91FF90EF90DF90AB
:1029F000CF90BF90AF909F908F907F906F905F909F
:102A00004F903F902F900895CF92DF92EF92FF92D8
:102A10000F931F93CF93DF938C01EB017A010E94F8
:102A20006413C801BE01A7010E946413C801BE015E
:102A3000A7010E94641381E090E00E94BE05C801D6
:102A4000BE01A7010E947411C801BE01A7010E9426
:102A50007411C801BE01A7010E945F0FD82EC92EB4
:102A6000C801BE01A7010E94741180914411909188
:102A700045118C179D0749F48FEF9FEFA9E5815011
:102A80009040A040E1F700C0000081E090E00E948B
:102A9000BE05C801BE010E9415018D2D9C2DDF9140
:102AA000CF911F910F91FF90EF90DF90CF900895FD
:102AB000AF92BF92CF92DF92EF92FF920F931F934C
:102AC000CF93DF935B016A010E94BC087C018230D6
:102AD000910564F10CE817E1C1E0D0E0D093411119
:102AE000C0934011F801619171918F0180914C0761
:102AF00090914D07A6010E94BA1081309105C9F04E
:102B0000FFEF8F3F9F0739F02196CE15DF0531F794
:102B100080E090E010C080914C0790914D07B50186
:102B2000A6010E94581580E090E005C080E090E08A
:102B300002C081E090E0DF91CF911F910F91FF9053
:102B4000EF90DF90CF90BF90AF9008952F923F927B
:102B50004F925F926F927F928F929F92AF92BF92AD
:102B6000CF92DF92EF92FF920F931F93CF93DF9359
:102B70002C01FC01EE0FFF1FE85BFE4EC080D180F0
:102B800082E061E0A60122E030E00E948F02209105
:102B90004C0730914D07F601EE0FFF1FE295F295BD
:102BA000F07FFE27E07FFE27E452F34F808D918D6A
:102BB00082179307B1F1F601EE0FFF1FE295F29530
:102BC000F07FFE27E07FFE27E452F34F828D938D46
:102BD0008217930749F1F601EE0FFF1FE295F29578
:102BE000F07FFE27E07FFE27E452F34F848D958D22
:102BF00082179307E1F0F601EE0FFF1FE295F295C1
:102C0000F07FFE27E07FFE27E452F34F41E050E0E3
:102C1000868D978D8217930711F440E050E05A019A
:102C200008C0AA24BB2405C0AA24BB2402C0AA242D
:102C3000BB248601000F111F02951295107F1027EB
:102C4000007F10270C50134FC601880F991F8295E3
:102C50009295907F9827807F98270F2EFCEFEF2E7C
:102C6000FCE0FF2EF02DE80EF91EE80188249924DF
:102C7000C601880F991F82959295907F9827807F33
:102C800098270F2EF0EF6F2EFCE07F2EF02D680EB0
:102C9000791E222433242394699179916115710559
:102CA00009F446C07093750760937407A114B104CA
:102CB000A1F080914C0790914D07A2010E945815F8
:102CC00081309105C9F1F3018081918181309105B5
:102CD00009F461C0AA24BB242BC020914C07309179
:102CE0004D07CB01821B930B1AF4909581959F4F52
:102CF0008130910519F08530910599F4C901A2013F
:102D00000E94BA10FFEF8F3F9F0791F0813091052D
:102D100009F444C0F301808191818130910541F42F
:102D200040C0F3018081918181309105E9F1410139
:102D3000CE15DF0509F0B0CF81149104C1F1C601B1
:102D4000880F991F82959295907F9827807F98276A
:102D5000EC01C051D34FF801619171918F01611560
:102D6000710599F0709375076093740780914C0713
:102D700090914D07A2010E94581581309105D1F024
:102D80008881998181309105C1F00E151F0519F7D1
:102D900080E090E014C081E090E011C081E090E01C
:102DA0000EC081E090E00BC081E090E008C080E0C0
:102DB00090E005C081E090E002C081E090E0DF910A
:102DC000CF911F910F91FF90EF90DF90CF90BF9028
:102DD000AF909F908F907F906F905F904F903F90BB
:102DE0002F900895E1ECF0E010821092C00086E090
:102DF0008093C2008FE58093C4001092C50088E9DB
:102E0000808308951F920F920FB60F920BB60F9208
:102E100011242F933F934F935F936F937F938F93DF
:102E20009F93AF93BF93CF93DF93EF93FF938091E3
:102E3000C60090E0909307188093061880910618BA
:102E4000909107188E319105C9F1809106189091E3
:102E500007188832910591F1809106189091071812
:102E60008233910559F180910618909107188C339F
:102E7000910521F1809106189091071880359105F0
:102E8000E9F0809106189091071884369105B1F009
:102E900080910618909107188C38910579F08091EF
:102EA0000618909107188639910541F0809106180F
:102EB00090910718803A910509F09EC080910618FC
:102EC000909107188035910509F453C0813591051B
:102ED0009CF48832910581F1893291052CF48E3170
:102EE000910509F07EC11DC08233910581F18C33BB
:102EF000910509F076C132C08C38910509F44FC0B4
:102F00008D3891052CF48436910509F06AC140C0D2
:102F10008639910509F44EC0803A910509F061C1E6
:102F200054C081E090E09093C50C8093C40C109243
:102F30005B0710925A0755C181E090E090935B07C0
:102F400080935A071092C50C1092C40C4AC181E0BC
:102F500090E0909357078093560743C181E090E03B
:102F6000909369078093680784E690E00E9461016E
:102F700038C181E090E09093510780935007109200
:102F8000C50C1092C40C10925B0710925A0729C10D
:102F900081E090E0909361078093600722C181E017
:102FA00090E09093630780936207109265071092F8
:102FB000640717C181E090E09093630780936207F4
:102FC00090936507809364070CC181E090E0909333
:102FD0005D0780935C071092510710925007109282
:102FE000C50C1092C40C10925B0710925A0784E62D
:102FF00090E00E946101F5C08091C40C9091C50CD5
:10300000009799F08091061890910718909359189D
:103010008093581881E090E09093C30C8093C20C89
:103020001092C50C1092C40C3EC08091C20C9091BD
:10303000C30C0097C1F12091061830910718309306
:103040005B1820935A1860915818709159184AE1EA
:1030500050E0649FF001659FF00D749FF00D112406
:10306000E20FF31FA0E0B2E0EE0FFF1FEA0FFB1F1D
:10307000C3E6D0E0D183C083249FC001259F900D7B
:10308000349F900D1124860F971F880F991FA80F4A
:10309000B91FCD93DC931092C30C1092C20C84E63E
:1030A00090E00E9461018091500790915107009734
:1030B000E9F080910618909107189093451180933C
:1030C0004411109251071092500781E090E09093C4
:1030D0004F0780934E07409144115091451182E073
:1030E00067E022E030E00E948F0220C080914E070E
:1030F00090914F070097D1F0809106189091071892
:10310000909347118093461110924F0710924E07EB
:10311000409146115091471182E06AE022E030E090
:103120000E948F0284E690E00E94610180915A071C
:1031300090915B070097C9F0E0916A07F0916B07E7
:103140008091061890910718EE0FFF1FE85BFE4E66
:103150009183808310925B0710925A0781E090E080
:10316000909359078093580726C0809158079091F3
:103170005907009701F1E0916A07F0916B07809180
:10318000061890910718EE0FFF1FE85FF74E918326
:1031900080831092590710925807E0916A07F091C6
:1031A0006B07EE0FFF1FEC5DFD4E1182108284E66F
:1031B00090E00E9461018091560790915707009717
:1031C00081F0809106189091071890936B07809377
:1031D0006A07109257071092560784E690E00E9403
:1031E0006101FF91EF91DF91CF91BF91AF919F91DD
:1031F0008F917F916F915F914F913F912F910F90A0
:103200000BBE0F900FBE0F901F9018950E94D50A0D
:103210000E94040C0E94020B0E94970A08950E94CB
:10322000B1010E945F060E94FC020E9496030E9468
:10323000A7030E94AA030895F8940E940F190E9400
:1032400020020E9403030E94BF030E94AD030E945C
:10325000B6030E94F2160E9489060E9444077894E1
:1032600008952F923F924F925F926F927F928F922A
:103270009F92AF92BF92CF92DF92EF92FF920F9305
:103280001F93CF93DF930F920F92CDB7DEB70E94BB
:1032900006190E941C19222433248824992483941B
:1032A00044244A94542CAA24BB2404E212E10F2E95
:1032B000F4E4EF2EF1E1FF2EF02D0F2EF6E46F2E49
:1032C000F1E17F2EF02DA982BA8280916A07909158
:1032D0006B07181619060CF0DAC0A40162019501FB
:1032E000C901880F991F800F911FFC018081918176
:1032F0000097A9F4C901880F991F885F974EFC01B8
:10330000808191810097A9F0808191818130910520
:1033100031F44115510519F0690149815A812F5F36
:103320003F4F80916A0790916B0728173907C4F2C5
:1033300001C06901FFEFCF16FFEFDF0609F4AAC055
:10334000C601880F991F885F974EFC01808191818B
:103350000E94A1082114310421F5F7018081918197
:103360008F30910531F0F301808191818F3091058B
:1033700061F4F701808191818F309105D1F3F301E0
:10338000808191818F309105A1F30E942F0466E422
:1033900070E080E090E00E945E04C4010E94BE05DF
:1033A0001401C6010E94A615C601880F991F885FE7
:1033B000974EFC0180819181009709F06BC080914C
:1033C0004C0790914D076FE070E049E050E00E949B
:1033D00058158FE090E06AE070E00E94690D85E585
:1033E00090E00E9419069092D30C8092D20CC401F6
:1033F0000E94BE05B092D30CA092D20C8AEA90E053
:103400000E9419060E943E0464E670E080E090E0AD
:103410000E945E0483E090E00E94A108C4010E9423
:103420006A068FE090E090934D0780934C0783E00D
:1034300090E090934B0780934A070E94AC10B092A3
:103440006107A092600782E390E0B501A5010E94A8
:10345000690180E791E00197F1F700C08091600772
:10346000909161070097A9F482E390E0B501A5016E
:103470000E946901E6E6FEE03197F1F700008091D5
:10348000600790916107009779F3150103C062010D
:1034900001C01501809168079091690781309105FD
:1034A00009F013CFFFEFCF16FFEFDF0609F00DCFC6
:1034B00085E090E00E946A0680E090E00F900F9017
:1034C000DF91CF911F910F91FF90EF90DF90CF9000
:1034D000BF90AF909F908F907F906F905F904F9034
:1034E0003F902F9008955058BB27AA270ED075C142
:1034F00066D130F06BD120F031F49F3F11F41EF40F
:103500005BC10EF4E095E7FB51C1E92F77D180F361
:10351000BA17620773078407950718F071F49EF5D0
:103520008FC10EF4E0950B2EBA2FA02D0B01B9011F
:1035300090010C01CA01A0011124FF27591B99F029
:10354000593F50F4503E68F11A16F040A22F232F35
:10355000342F4427585FF3CF469537952795A79585
:10356000F0405395C9F77EF41F16BA0B620B730B2C
:10357000840BBAF09150A1F0FF0FBB1F661F771F9D
:10358000881FC2F70EC0BA0F621F731F841F48F452
:10359000879577956795B795F7959E3F08F0B3CFD8
:1035A0009395880F08F09927EE0F979587950895C2
:1035B000D9D008F481E008950CD00FC107D140F0B4
:1035C000FED030F021F45F3F19F0F0C0511139C145
:1035D000F3C014D198F39923C9F35523B1F3951B84
:1035E000550BBB27AA2762177307840738F09F5F24
:1035F0005F4F220F331F441FAA1FA9F333D00E2E93
:103600003AF0E0E830D091505040E695001CCAF7FF
:1036100029D0FE2F27D0660F771F881FBB1F2617C4
:1036200037074807AB07B0E809F0BB0B802DBF0197
:10363000FF2793585F4F2AF09E3F510568F0B6C0B0
:1036400000C15F3FECF3983EDCF386957795679574
:10365000B795F7959F5FC9F7880F911D9695879548
:1036600097F90895E1E0660F771F881FBB1F621767
:1036700073078407BA0720F0621B730B840BBA0B25
:10368000EE1F88F7E095089504D06894B111D9C071
:103690000895BCD088F09F5790F0B92F9927B75163
:1036A000A0F0D1F0660F771F881F991F1AF0BA9506
:1036B000C9F712C0B13081F0C3D0B1E00895C0C0E5
:1036C000672F782F8827B85F39F0B93FCCF38695FC
:1036D00077956795B395D9F73EF490958095709559
:1036E00061957F4F8F4F9F4F0895E89409C097FBD6
:1036F0003EF490958095709561957F4F8F4F9F4FC9
:103700009923A9F0F92F96E9BB279395F69587950C
:1037100077956795B795F111F8CFFAF4BB0F11F4CF
:1037200060FF1BC06F5F7F4F8F4F9F4F16C0882376
:1037300011F096E911C0772321F09EE8872F762FAC
:1037400005C0662371F096E8862F70E060E02AF0ED
:103750009A95660F771F881FDAF7880F96958795D9
:1037600097F90895990F0008550FAA0BE0E8FEEFAE
:1037700016161706E807F907C0F012161306E40735
:10378000F50798F0621B730B840B950B39F40A262E
:1037900061F0232B242B252B21F408950A2609F40C
:1037A000A140A6958FEF811D811D089597F99F6710
:1037B00080E870E060E008959FEF80EC08950024B9
:1037C0000A941616170618060906089500240A9486
:1037D00012161306140605060895092E0394000C0C
:1037E00011F4882352F0BB0F40F4BF2B11F460FF9B
:1037F00004C06F5F7F4F8F4F9F4F089557FD9058C4
:10380000440F551F59F05F3F71F04795880F97FBA4
:10381000991F61F09F3F79F087950895121613065E
:103820001406551FF2CF4695F1DF08C0161617068D
:103830001806991FF1CF86957105610508940895C2
:10384000E894BB2766277727CB0197F908950BD01B
:10385000C4CFB5DF28F0BADF18F0952309F0A6CF62
:10386000ABCF1124EECFCADFA0F3959FD1F3950F14
:1038700050E0551F629FF001729FBB27F00DB11DF4
:10388000639FAA27F00DB11DAA1F649F6627B00D84
:10389000A11D661F829F2227B00DA11D621F739F6D
:1038A000B00DA11D621F839FA00D611D221F749F7B
:1038B0003327A00D611D231F849F600D211D822FC2
:1038C000762F6A2F11249F5750408AF0E1F0882309
:1038D0004AF0EE0FFF1FBB1F661F771F881F915016
:1038E0005040A9F79E3F510570F060CFAACF5F3FCF
:1038F000ECF3983EDCF3869577956795B795F79549
:10390000E7959F5FC1F7FE2B880F911D96958795D0
:1039100097F90895FA01EE0FFF1F30962105310542
:1039200099F16115710561F48038BFE39B0749F196
:1039300068949038810561F08038BFEF9B0741F0B3
:10394000992342F5FF3FE1053105210511F1E89486
:103950000894E795D901AA2329F4AB2FBE2FF85F6D
:10396000D0F310C0FF5F70F4A695E0F7F73950F080
:1039700019F0FF3A38F49F779F930CD00F9007FC13
:10398000905808953EF018CF60E070E080E89FE323
:1039900008954FE79F775F934F933F932F939ED068
:1039A0002F913F914F915F9152DF05C019F40EF0B6
:1039B000FDCE46CF01CF2ADFC8F39638C0F707F80F
:1039C0000F92E8942BE33AEA48EB5FE74EDF0F9261
:1039D0000F920F924DB75EB70F92C0D0E4EEF0E0B9
:1039E00016D04F915F91EF91FF91E595EE1FFF1F6C
:1039F00049F0FE57E0684427EE0F441FFA95E1F7BF
:103A00004195550B32D00F9007FE26C00895DF93E5
:103A1000CF931F930F93FF92EF92DF927B018C0164
:103A2000689405C0DA2EEF011EDFFE01E894A5912F
:103A30002591359145915591AEF3EF0166DDFE017B
:103A40009701A801DA9479F7DF90EF90FF900F913A
:103A50001F91CF91DF9108959B01AC0160E070E070
:103A600080E89FE3A9CDA2CEACC0D0DEE8F39923D5
:103A7000D9F3940F511DBBF39150504094F059F07D
:103A8000882332F0660F771F881F91505040C1F78E
:103A90009E3F510544F7880F911D9695879597F99C
:103AA00008955F3FACF0983E9CF0BB2786957795D4
:103AB0006795B79508F4B1609395C1F7BB0F58F7B8
:103AC00011F460FFE8CF6F5F7F4F8F4F9F4FE3CFC1
:103AD000B8CE0EF076C070CE689468CE97DEC8F38C
:103AE0009923D1F3C6F3DF93CF931F930F93FF92E4
:103AF000C92FDD2788232AF02197660F771F881F9B
:103B0000DAF720E030E040E85FEB9FE3883920F00F
:103B1000803E30F021968F77E7DCECE0F1E003C0E7
:103B2000E3DCE9E3F1E073DF8B01BE01EC01FB2E86
:103B30006F5771097595771F880B990BD8DD28E1B0
:103B400032E741E35FE38FDEAF2D9801AE01FF90D6
:103B50000F911F91CF91DF91D8DC3FCEFA01DC01AC
:103B6000AA0FBB1F9B01AC01BF5728F422273327A4
:103B7000442750781FC0B75188F4AB2F00244695D6
:103B800037952795011CA395D2F3002069F0220FE9
:103B9000331F441FB395DAF30DD0A5CC6130710506
:103BA000A0E88A07B94630F49B01AC016627772765
:103BB00088279078309621F0208331834283538385
:103BC00008959F3F31F0915020F487957795679540
:103BD000B795880F911D9695879597F90895AA1B1B
:103BE000BB1B51E107C0AA1FBB1FA617B70710F0E8
:103BF000A61BB70B881F991F5A95A9F7809590951A
:103C0000BC01CD01089597FB092E07260AD077FD48
:103C100004D0E5DF06D000201AF4709561957F4F3F
:103C20000895F6F7909581959F4F0895A1E21A2E79
:103C3000AA1BBB1BFD010DC0AA1FBB1FEE1FFF1F50
:103C4000A217B307E407F50720F0A21BB30BE40BA0
:103C5000F50B661F771F881F991F1A9469F76095E7
:103C60007095809590959B01AC01BD01CF010895A1
:043C7000F894FFCFF6
:103C74000000000000000000000000000000000040
:103C84000000000000000000000000000000000030
:103C94000000000000000000000000000000000020
:103CA400000000000000000001000000000000000F
:103CB40001000000000000000000000000000000FF
:103CC40000000000000000000000000000000000F0
:103CD40000000000000000000000010000000100DE
:103CE40000000000000001000000000000000000CF
:103CF40000000000000000000000000000000000C0
:103D040000000000000000000000000000000000AF
:103D1400010000000100000000000000010000009C
:103D2400000000000000000000000000000000008F
:103D3400000000000000000000000000000000007F
:103D4400000000000000010000000100000000006D
:103D5400000001000000000000000000000000005E
:103D6400000000000000000000000000000000004F
:103D7400000000000000000000000000010000003E
:103D8400000000000000000001000000000000002E
:103D9400000000000000000000000000000000001F
:103DA400000000000000000000000100000000000E
:103DB40000000000000001000000000000000100FD
:103DC40000000000000000000000000000000000EF
:103DD40000000000000000000000000000000000DF
:103DE40001000000000000000100000001000000CC
:103DF40000000000010000000000000000000000BE
:103E040000000000000000000000000000000000AE
:103E1400000000000000010000000000000001009C
:103E2400000001000000000000000100000000008C
:103E3400000000000000000000000000000000007E
:103E4400000000000000000000000000010000006D
:103E5400000000000100000001000000000000005C
:103E6400010000000000000000000000000000004D
:103E7400000000000000000000000000000000003E
:103E8400000001000000000000000100000000002C
:103E9400000000000000010000000000000000001D
:103EA400000000000000000000000000000000000E
:103EB40000000000000000000100000000000000FD
:103EC40000000000010000000000000001000000EC
:103ED40000000000000000000000000000000000DE
:103EE40000000000000000000000000000000100CD
:103EF40000000000000001000000010000000000BC
:103F040000000100000000000000000000000000AC
:103F1400000000000000000000000000000000009D
:103F2400000000000100000000000000010000008B
:103F3400010000000000000001000000000000007B
:103F4400000000000000000000000000000000006D
:103F5400000000000000000000000100000000005C
:103F6400000001000000010000000000000001004A
:103F7400000000000000000000000000000000003D
:103F8400000000000000000000000000000000002D
:103F9400010000000000000001000000000000001B
:103FA400000000000100000000000000000000000C
:103FB40000000000000000000000000000000000FD
:103FC40000000000000001000000000000000000EC
:103FD40000000100000000000000010000000000DB
:103FE40000000000000000000000000000000000CD
:103FF40000000000000000000000000001000000BC
:1040040000000000010000000100000000000000AA
:10401400010000000000000000000000000000009B
:10402400000000000000000000000000000000008C
:104034000000010000000000000001000000010079
:10404400000000000000010000000000000000006B
:10405400000000000000000000000000000000005C
:10406400000000000000000001000000000000004B
:104074000100000001000000000000000100000039
:10408400000000000000000000000000000000002C
:10409400000000000000000000000000000001001B
:1040A400000000000000010000000000000000000B
:1040B40000000100000000000000000000000000FB
:1040C40000000000000000000000000000000000EC
:1040D40000000000010000000000000000000000DB
:1040E40001000000000000000000000000000000CB
:1040F40000000000000000000000000000000000BC
:1041040000000000000000000000010000000000AA
:104114000000010000000100000000000000000099
:10412400000000000000000000000000000000008B
:10413400000000000000000000000000000000007B
:104144000100000000000000010000000100000068
:10415400000000000000000000000000000000005B
:10416400000000000000000000000000000000004B
:104174000000000000000100000000000000010039
:10418400000001000000000000000000000000002A
:10419400000000000000000000000000000000001B
:1041A400000000000000000000000000010000000A
:0E41B40000000000010000000C0003000F00DE
:00000001FF
